{
	"solidityDemo1/test_zhioryinyong.sol": {
		"zhioryinyong": {
			"abi": [
				{
					"inputs": [
						{
							"internalType": "uint256[]",
							"name": "arr13",
							"type": "uint256[]"
						}
					],
					"stateMutability": "nonpayable",
					"type": "constructor"
				},
				{
					"inputs": [
						{
							"internalType": "uint256",
							"name": "",
							"type": "uint256"
						}
					],
					"name": "arr",
					"outputs": [
						{
							"internalType": "uint256",
							"name": "",
							"type": "uint256"
						}
					],
					"stateMutability": "view",
					"type": "function"
				},
				{
					"inputs": [
						{
							"internalType": "uint256",
							"name": "",
							"type": "uint256"
						}
					],
					"name": "arr1",
					"outputs": [
						{
							"internalType": "uint256",
							"name": "",
							"type": "uint256"
						}
					],
					"stateMutability": "view",
					"type": "function"
				},
				{
					"inputs": [
						{
							"internalType": "uint256",
							"name": "",
							"type": "uint256"
						}
					],
					"name": "arr11",
					"outputs": [
						{
							"internalType": "uint256",
							"name": "",
							"type": "uint256"
						}
					],
					"stateMutability": "view",
					"type": "function"
				},
				{
					"inputs": [
						{
							"internalType": "uint256",
							"name": "",
							"type": "uint256"
						}
					],
					"name": "arr12",
					"outputs": [
						{
							"internalType": "uint256",
							"name": "",
							"type": "uint256"
						}
					],
					"stateMutability": "view",
					"type": "function"
				},
				{
					"inputs": [
						{
							"internalType": "uint256",
							"name": "",
							"type": "uint256"
						}
					],
					"name": "arr3",
					"outputs": [
						{
							"internalType": "uint256",
							"name": "",
							"type": "uint256"
						}
					],
					"stateMutability": "view",
					"type": "function"
				},
				{
					"inputs": [
						{
							"internalType": "uint256",
							"name": "",
							"type": "uint256"
						}
					],
					"name": "arr4",
					"outputs": [
						{
							"internalType": "uint256",
							"name": "",
							"type": "uint256"
						}
					],
					"stateMutability": "view",
					"type": "function"
				},
				{
					"inputs": [],
					"name": "test1",
					"outputs": [
						{
							"internalType": "uint256",
							"name": "",
							"type": "uint256"
						},
						{
							"internalType": "uint256",
							"name": "",
							"type": "uint256"
						}
					],
					"stateMutability": "nonpayable",
					"type": "function"
				},
				{
					"inputs": [],
					"name": "test2",
					"outputs": [
						{
							"internalType": "uint256",
							"name": "",
							"type": "uint256"
						},
						{
							"internalType": "uint256",
							"name": "",
							"type": "uint256"
						}
					],
					"stateMutability": "nonpayable",
					"type": "function"
				},
				{
					"inputs": [],
					"name": "test3",
					"outputs": [
						{
							"internalType": "uint256",
							"name": "",
							"type": "uint256"
						},
						{
							"internalType": "uint256",
							"name": "",
							"type": "uint256"
						}
					],
					"stateMutability": "pure",
					"type": "function"
				},
				{
					"inputs": [
						{
							"internalType": "uint256[]",
							"name": "arr7",
							"type": "uint256[]"
						}
					],
					"name": "test4",
					"outputs": [
						{
							"internalType": "uint256",
							"name": "",
							"type": "uint256"
						},
						{
							"internalType": "uint256",
							"name": "",
							"type": "uint256"
						}
					],
					"stateMutability": "pure",
					"type": "function"
				},
				{
					"inputs": [
						{
							"internalType": "uint256[]",
							"name": "arr9",
							"type": "uint256[]"
						}
					],
					"name": "test5",
					"outputs": [
						{
							"internalType": "uint256",
							"name": "",
							"type": "uint256"
						},
						{
							"internalType": "uint256",
							"name": "",
							"type": "uint256"
						}
					],
					"stateMutability": "pure",
					"type": "function"
				},
				{
					"inputs": [],
					"name": "testCon",
					"outputs": [
						{
							"internalType": "uint256",
							"name": "",
							"type": "uint256"
						},
						{
							"internalType": "uint256",
							"name": "",
							"type": "uint256"
						}
					],
					"stateMutability": "view",
					"type": "function"
				}
			],
			"devdoc": {
				"kind": "dev",
				"methods": {},
				"version": 1
			},
			"evm": {
				"assembly": "    /* \"solidityDemo1/test_zhioryinyong.sol\":61:1746  contract zhioryinyong {... */\n  mstore(0x40, 0x80)\n    /* \"solidityDemo1/test_zhioryinyong.sol\":129:130  3 */\n  0x03\n    /* \"solidityDemo1/test_zhioryinyong.sol\":115:131  new uint256[](3) */\n  0xffffffffffffffff\n  dup2\n  gt\n  iszero\n  tag_1\n  jumpi\n  tag_2\n  tag_3\n  jump\t// in\ntag_2:\ntag_1:\n  mload(0x40)\n  swap1\n  dup1\n  dup3\n  mstore\n  dup1\n  0x20\n  mul\n  0x20\n  add\n  dup3\n  add\n  0x40\n  mstore\n  dup1\n  iszero\n  tag_4\n  jumpi\n  dup2\n  0x20\n  add\n  0x20\n  dup3\n  mul\n  dup1\n  calldatasize\n  dup4\n  calldatacopy\n  dup1\n  dup3\n  add\n  swap2\n  pop\n  pop\n  swap1\n  pop\ntag_4:\n  pop\n    /* \"solidityDemo1/test_zhioryinyong.sol\":92:131  uint256[] public arr = new uint256[](3) */\n  0x00\n  swap1\n  dup1\n  mload\n  swap1\n  0x20\n  add\n  swap1\n  tag_5\n  swap3\n  swap2\n  swap1\n  tag_6\n  jump\t// in\ntag_5:\n  pop\n    /* \"solidityDemo1/test_zhioryinyong.sol\":176:177  3 */\n  0x03\n    /* \"solidityDemo1/test_zhioryinyong.sol\":162:178  new uint256[](3) */\n  0xffffffffffffffff\n  dup2\n  gt\n  iszero\n  tag_7\n  jumpi\n  tag_8\n  tag_3\n  jump\t// in\ntag_8:\ntag_7:\n  mload(0x40)\n  swap1\n  dup1\n  dup3\n  mstore\n  dup1\n  0x20\n  mul\n  0x20\n  add\n  dup3\n  add\n  0x40\n  mstore\n  dup1\n  iszero\n  tag_9\n  jumpi\n  dup2\n  0x20\n  add\n  0x20\n  dup3\n  mul\n  dup1\n  calldatasize\n  dup4\n  calldatacopy\n  dup1\n  dup3\n  add\n  swap2\n  pop\n  pop\n  swap1\n  pop\ntag_9:\n  pop\n    /* \"solidityDemo1/test_zhioryinyong.sol\":138:178  uint256[] public arr1 = new uint256[](3) */\n  0x01\n  swap1\n  dup1\n  mload\n  swap1\n  0x20\n  add\n  swap1\n  tag_10\n  swap3\n  swap2\n  swap1\n  tag_6\n  jump\t// in\ntag_10:\n  pop\n    /* \"solidityDemo1/test_zhioryinyong.sol\":215:246  uint256[] public arr4 = [4,5,6] */\n  mload(0x40)\n  dup1\n  0x60\n  add\n  0x40\n  mstore\n  dup1\n    /* \"solidityDemo1/test_zhioryinyong.sol\":240:241  4 */\n  0x04\n    /* \"solidityDemo1/test_zhioryinyong.sol\":215:246  uint256[] public arr4 = [4,5,6] */\n  0xff\n  and\n  dup2\n  mstore\n  0x20\n  add\n    /* \"solidityDemo1/test_zhioryinyong.sol\":242:243  5 */\n  0x05\n    /* \"solidityDemo1/test_zhioryinyong.sol\":215:246  uint256[] public arr4 = [4,5,6] */\n  0xff\n  and\n  dup2\n  mstore\n  0x20\n  add\n    /* \"solidityDemo1/test_zhioryinyong.sol\":244:245  6 */\n  0x06\n    /* \"solidityDemo1/test_zhioryinyong.sol\":215:246  uint256[] public arr4 = [4,5,6] */\n  0xff\n  and\n  dup2\n  mstore\n  pop\n  0x03\n  swap1\n  0x03\n  tag_11\n  swap3\n  swap2\n  swap1\n  tag_12\n  jump\t// in\ntag_11:\n  pop\n    /* \"solidityDemo1/test_zhioryinyong.sol\":315:458  constructor(uint256[] memory arr13) {... */\n  callvalue\n  dup1\n  iszero\n  tag_13\n  jumpi\n  0x00\n  dup1\n  revert\ntag_13:\n  pop\n  mload(0x40)\n  sub(codesize, bytecodeSize)\n  dup1\n  bytecodeSize\n  dup4\n  codecopy\n  dup2\n  dup2\n  add\n  0x40\n  mstore\n  dup2\n  add\n  swap1\n  tag_14\n  swap2\n  swap1\n  tag_15\n  jump\t// in\ntag_14:\n    /* \"solidityDemo1/test_zhioryinyong.sol\":362:377  arr11 = [1,2,3] */\n  mload(0x40)\n  dup1\n  0x60\n  add\n  0x40\n  mstore\n  dup1\n    /* \"solidityDemo1/test_zhioryinyong.sol\":371:372  1 */\n  0x01\n    /* \"solidityDemo1/test_zhioryinyong.sol\":362:377  arr11 = [1,2,3] */\n  0xff\n  and\n  dup2\n  mstore\n  0x20\n  add\n    /* \"solidityDemo1/test_zhioryinyong.sol\":373:374  2 */\n  0x02\n    /* \"solidityDemo1/test_zhioryinyong.sol\":362:377  arr11 = [1,2,3] */\n  0xff\n  and\n  dup2\n  mstore\n  0x20\n  add\n    /* \"solidityDemo1/test_zhioryinyong.sol\":375:376  3 */\n  0x03\n    /* \"solidityDemo1/test_zhioryinyong.sol\":362:377  arr11 = [1,2,3] */\n  0xff\n  and\n  dup2\n  mstore\n  pop\n    /* \"solidityDemo1/test_zhioryinyong.sol\":362:367  arr11 */\n  0x04\n    /* \"solidityDemo1/test_zhioryinyong.sol\":362:377  arr11 = [1,2,3] */\n  swap1\n  0x03\n  tag_18\n  swap3\n  swap2\n  swap1\n  tag_12\n  jump\t// in\ntag_18:\n  pop\n    /* \"solidityDemo1/test_zhioryinyong.sol\":396:401  arr11 */\n  0x04\n    /* \"solidityDemo1/test_zhioryinyong.sol\":388:401  arr13 = arr11 */\n  dup1\n  sload\n  dup1\n  0x20\n  mul\n  0x20\n  add\n  mload(0x40)\n  swap1\n  dup2\n  add\n  0x40\n  mstore\n  dup1\n  swap3\n  swap2\n  swap1\n  dup2\n  dup2\n  mstore\n  0x20\n  add\n  dup3\n  dup1\n  sload\n  dup1\n  iszero\n  tag_19\n  jumpi\n  0x20\n  mul\n  dup3\n  add\n  swap2\n  swap1\n  0x00\n  mstore\n  keccak256(0x00, 0x20)\n  swap1\ntag_20:\n  dup2\n  sload\n  dup2\n  mstore\n  0x20\n  add\n  swap1\n  0x01\n  add\n  swap1\n  dup1\n  dup4\n  gt\n  tag_20\n  jumpi\ntag_19:\n  pop\n  pop\n  pop\n  pop\n  pop\n  swap1\n  pop\n    /* \"solidityDemo1/test_zhioryinyong.sol\":449:450  6 */\n  0x06\n    /* \"solidityDemo1/test_zhioryinyong.sol\":438:443  arr11 */\n  0x04\n    /* \"solidityDemo1/test_zhioryinyong.sol\":444:445  0 */\n  0x00\n    /* \"solidityDemo1/test_zhioryinyong.sol\":438:446  arr11[0] */\n  dup2\n  sload\n  dup2\n  lt\n  tag_21\n  jumpi\n  tag_22\n  tag_23\n  jump\t// in\ntag_22:\ntag_21:\n  swap1\n  0x00\n  mstore\n  keccak256(0x00, 0x20)\n  add\n    /* \"solidityDemo1/test_zhioryinyong.sol\":438:450  arr11[0] = 6 */\n  dup2\n  swap1\n  sstore\n  pop\n    /* \"solidityDemo1/test_zhioryinyong.sol\":315:458  constructor(uint256[] memory arr13) {... */\n  pop\n    /* \"solidityDemo1/test_zhioryinyong.sol\":61:1746  contract zhioryinyong {... */\n  jump(tag_25)\ntag_6:\n  dup3\n  dup1\n  sload\n  dup3\n  dup3\n  sstore\n  swap1\n  0x00\n  mstore\n  keccak256(0x00, 0x20)\n  swap1\n  dup2\n  add\n  swap3\n  dup3\n  iszero\n  tag_26\n  jumpi\n  swap2\n  0x20\n  mul\n  dup3\n  add\ntag_27:\n  dup3\n  dup2\n  gt\n  iszero\n  tag_28\n  jumpi\n  dup3\n  mload\n  dup3\n  sstore\n  swap2\n  0x20\n  add\n  swap2\n  swap1\n  0x01\n  add\n  swap1\n  jump(tag_27)\ntag_28:\ntag_26:\n  pop\n  swap1\n  pop\n  tag_29\n  swap2\n  swap1\n  tag_30\n  jump\t// in\ntag_29:\n  pop\n  swap1\n  jump\t// out\ntag_12:\n  dup3\n  dup1\n  sload\n  dup3\n  dup3\n  sstore\n  swap1\n  0x00\n  mstore\n  keccak256(0x00, 0x20)\n  swap1\n  dup2\n  add\n  swap3\n  dup3\n  iszero\n  tag_31\n  jumpi\n  swap2\n  0x20\n  mul\n  dup3\n  add\ntag_32:\n  dup3\n  dup2\n  gt\n  iszero\n  tag_33\n  jumpi\n  dup3\n  mload\n  dup3\n  swap1\n  0xff\n  and\n  swap1\n  sstore\n  swap2\n  0x20\n  add\n  swap2\n  swap1\n  0x01\n  add\n  swap1\n  jump(tag_32)\ntag_33:\ntag_31:\n  pop\n  swap1\n  pop\n  tag_34\n  swap2\n  swap1\n  tag_30\n  jump\t// in\ntag_34:\n  pop\n  swap1\n  jump\t// out\ntag_30:\ntag_35:\n  dup1\n  dup3\n  gt\n  iszero\n  tag_36\n  jumpi\n  0x00\n  dup2\n  0x00\n  swap1\n  sstore\n  pop\n  0x01\n  add\n  jump(tag_35)\ntag_36:\n  pop\n  swap1\n  jump\t// out\n    /* \"#utility.yul\":7:187   */\ntag_3:\n    /* \"#utility.yul\":55:132   */\n  0x4e487b7100000000000000000000000000000000000000000000000000000000\n    /* \"#utility.yul\":52:53   */\n  0x00\n    /* \"#utility.yul\":45:133   */\n  mstore\n    /* \"#utility.yul\":152:156   */\n  0x41\n    /* \"#utility.yul\":149:150   */\n  0x04\n    /* \"#utility.yul\":142:157   */\n  mstore\n    /* \"#utility.yul\":176:180   */\n  0x24\n    /* \"#utility.yul\":173:174   */\n  0x00\n    /* \"#utility.yul\":166:181   */\n  revert\n    /* \"#utility.yul\":193:268   */\ntag_37:\n    /* \"#utility.yul\":226:232   */\n  0x00\n    /* \"#utility.yul\":259:261   */\n  0x40\n    /* \"#utility.yul\":253:262   */\n  mload\n    /* \"#utility.yul\":243:262   */\n  swap1\n  pop\n    /* \"#utility.yul\":193:268   */\n  swap1\n  jump\t// out\n    /* \"#utility.yul\":274:391   */\ntag_38:\n    /* \"#utility.yul\":383:384   */\n  0x00\n    /* \"#utility.yul\":380:381   */\n  dup1\n    /* \"#utility.yul\":373:385   */\n  revert\n    /* \"#utility.yul\":397:514   */\ntag_39:\n    /* \"#utility.yul\":506:507   */\n  0x00\n    /* \"#utility.yul\":503:504   */\n  dup1\n    /* \"#utility.yul\":496:508   */\n  revert\n    /* \"#utility.yul\":520:637   */\ntag_40:\n    /* \"#utility.yul\":629:630   */\n  0x00\n    /* \"#utility.yul\":626:627   */\n  dup1\n    /* \"#utility.yul\":619:631   */\n  revert\n    /* \"#utility.yul\":643:745   */\ntag_41:\n    /* \"#utility.yul\":684:690   */\n  0x00\n    /* \"#utility.yul\":735:737   */\n  0x1f\n    /* \"#utility.yul\":731:738   */\n  not\n    /* \"#utility.yul\":726:728   */\n  0x1f\n    /* \"#utility.yul\":719:724   */\n  dup4\n    /* \"#utility.yul\":715:729   */\n  add\n    /* \"#utility.yul\":711:739   */\n  and\n    /* \"#utility.yul\":701:739   */\n  swap1\n  pop\n    /* \"#utility.yul\":643:745   */\n  swap2\n  swap1\n  pop\n  jump\t// out\n    /* \"#utility.yul\":751:1032   */\ntag_42:\n    /* \"#utility.yul\":834:861   */\n  tag_59\n    /* \"#utility.yul\":856:860   */\n  dup3\n    /* \"#utility.yul\":834:861   */\n  tag_41\n  jump\t// in\ntag_59:\n    /* \"#utility.yul\":826:832   */\n  dup2\n    /* \"#utility.yul\":822:862   */\n  add\n    /* \"#utility.yul\":964:970   */\n  dup2\n    /* \"#utility.yul\":952:962   */\n  dup2\n    /* \"#utility.yul\":949:971   */\n  lt\n    /* \"#utility.yul\":928:946   */\n  0xffffffffffffffff\n    /* \"#utility.yul\":916:926   */\n  dup3\n    /* \"#utility.yul\":913:947   */\n  gt\n    /* \"#utility.yul\":910:972   */\n  or\n    /* \"#utility.yul\":907:995   */\n  iszero\n  tag_60\n  jumpi\n    /* \"#utility.yul\":975:993   */\n  tag_61\n  tag_3\n  jump\t// in\ntag_61:\n    /* \"#utility.yul\":907:995   */\ntag_60:\n    /* \"#utility.yul\":1015:1025   */\n  dup1\n    /* \"#utility.yul\":1011:1013   */\n  0x40\n    /* \"#utility.yul\":1004:1026   */\n  mstore\n    /* \"#utility.yul\":794:1032   */\n  pop\n    /* \"#utility.yul\":751:1032   */\n  pop\n  pop\n  jump\t// out\n    /* \"#utility.yul\":1038:1167   */\ntag_43:\n    /* \"#utility.yul\":1072:1078   */\n  0x00\n    /* \"#utility.yul\":1099:1119   */\n  tag_63\n  tag_37\n  jump\t// in\ntag_63:\n    /* \"#utility.yul\":1089:1119   */\n  swap1\n  pop\n    /* \"#utility.yul\":1128:1161   */\n  tag_64\n    /* \"#utility.yul\":1156:1160   */\n  dup3\n    /* \"#utility.yul\":1148:1154   */\n  dup3\n    /* \"#utility.yul\":1128:1161   */\n  tag_42\n  jump\t// in\ntag_64:\n    /* \"#utility.yul\":1038:1167   */\n  swap2\n  swap1\n  pop\n  jump\t// out\n    /* \"#utility.yul\":1173:1484   */\ntag_44:\n    /* \"#utility.yul\":1250:1254   */\n  0x00\n    /* \"#utility.yul\":1340:1358   */\n  0xffffffffffffffff\n    /* \"#utility.yul\":1332:1338   */\n  dup3\n    /* \"#utility.yul\":1329:1359   */\n  gt\n    /* \"#utility.yul\":1326:1382   */\n  iszero\n  tag_66\n  jumpi\n    /* \"#utility.yul\":1362:1380   */\n  tag_67\n  tag_3\n  jump\t// in\ntag_67:\n    /* \"#utility.yul\":1326:1382   */\ntag_66:\n    /* \"#utility.yul\":1412:1416   */\n  0x20\n    /* \"#utility.yul\":1404:1410   */\n  dup3\n    /* \"#utility.yul\":1400:1417   */\n  mul\n    /* \"#utility.yul\":1392:1417   */\n  swap1\n  pop\n    /* \"#utility.yul\":1472:1476   */\n  0x20\n    /* \"#utility.yul\":1466:1470   */\n  dup2\n    /* \"#utility.yul\":1462:1477   */\n  add\n    /* \"#utility.yul\":1454:1477   */\n  swap1\n  pop\n    /* \"#utility.yul\":1173:1484   */\n  swap2\n  swap1\n  pop\n  jump\t// out\n    /* \"#utility.yul\":1490:1607   */\ntag_45:\n    /* \"#utility.yul\":1599:1600   */\n  0x00\n    /* \"#utility.yul\":1596:1597   */\n  dup1\n    /* \"#utility.yul\":1589:1601   */\n  revert\n    /* \"#utility.yul\":1613:1690   */\ntag_46:\n    /* \"#utility.yul\":1650:1657   */\n  0x00\n    /* \"#utility.yul\":1679:1684   */\n  dup2\n    /* \"#utility.yul\":1668:1684   */\n  swap1\n  pop\n    /* \"#utility.yul\":1613:1690   */\n  swap2\n  swap1\n  pop\n  jump\t// out\n    /* \"#utility.yul\":1696:1818   */\ntag_47:\n    /* \"#utility.yul\":1769:1793   */\n  tag_71\n    /* \"#utility.yul\":1787:1792   */\n  dup2\n    /* \"#utility.yul\":1769:1793   */\n  tag_46\n  jump\t// in\ntag_71:\n    /* \"#utility.yul\":1762:1767   */\n  dup2\n    /* \"#utility.yul\":1759:1794   */\n  eq\n    /* \"#utility.yul\":1749:1812   */\n  tag_72\n  jumpi\n    /* \"#utility.yul\":1808:1809   */\n  0x00\n    /* \"#utility.yul\":1805:1806   */\n  dup1\n    /* \"#utility.yul\":1798:1810   */\n  revert\n    /* \"#utility.yul\":1749:1812   */\ntag_72:\n    /* \"#utility.yul\":1696:1818   */\n  pop\n  jump\t// out\n    /* \"#utility.yul\":1824:1967   */\ntag_48:\n    /* \"#utility.yul\":1881:1886   */\n  0x00\n    /* \"#utility.yul\":1912:1918   */\n  dup2\n    /* \"#utility.yul\":1906:1919   */\n  mload\n    /* \"#utility.yul\":1897:1919   */\n  swap1\n  pop\n    /* \"#utility.yul\":1928:1961   */\n  tag_74\n    /* \"#utility.yul\":1955:1960   */\n  dup2\n    /* \"#utility.yul\":1928:1961   */\n  tag_47\n  jump\t// in\ntag_74:\n    /* \"#utility.yul\":1824:1967   */\n  swap3\n  swap2\n  pop\n  pop\n  jump\t// out\n    /* \"#utility.yul\":1990:2722   */\ntag_49:\n    /* \"#utility.yul\":2097:2102   */\n  0x00\n    /* \"#utility.yul\":2122:2203   */\n  tag_76\n    /* \"#utility.yul\":2138:2202   */\n  tag_77\n    /* \"#utility.yul\":2195:2201   */\n  dup5\n    /* \"#utility.yul\":2138:2202   */\n  tag_44\n  jump\t// in\ntag_77:\n    /* \"#utility.yul\":2122:2203   */\n  tag_43\n  jump\t// in\ntag_76:\n    /* \"#utility.yul\":2113:2203   */\n  swap1\n  pop\n    /* \"#utility.yul\":2223:2228   */\n  dup1\n    /* \"#utility.yul\":2252:2258   */\n  dup4\n    /* \"#utility.yul\":2245:2250   */\n  dup3\n    /* \"#utility.yul\":2238:2259   */\n  mstore\n    /* \"#utility.yul\":2286:2290   */\n  0x20\n    /* \"#utility.yul\":2279:2284   */\n  dup3\n    /* \"#utility.yul\":2275:2291   */\n  add\n    /* \"#utility.yul\":2268:2291   */\n  swap1\n  pop\n    /* \"#utility.yul\":2339:2343   */\n  0x20\n    /* \"#utility.yul\":2331:2337   */\n  dup5\n    /* \"#utility.yul\":2327:2344   */\n  mul\n    /* \"#utility.yul\":2319:2325   */\n  dup4\n    /* \"#utility.yul\":2315:2345   */\n  add\n    /* \"#utility.yul\":2368:2371   */\n  dup6\n    /* \"#utility.yul\":2360:2366   */\n  dup2\n    /* \"#utility.yul\":2357:2372   */\n  gt\n    /* \"#utility.yul\":2354:2476   */\n  iszero\n  tag_78\n  jumpi\n    /* \"#utility.yul\":2387:2466   */\n  tag_79\n  tag_45\n  jump\t// in\ntag_79:\n    /* \"#utility.yul\":2354:2476   */\ntag_78:\n    /* \"#utility.yul\":2502:2508   */\n  dup4\n    /* \"#utility.yul\":2485:2716   */\ntag_80:\n    /* \"#utility.yul\":2519:2525   */\n  dup2\n    /* \"#utility.yul\":2514:2517   */\n  dup2\n    /* \"#utility.yul\":2511:2526   */\n  lt\n    /* \"#utility.yul\":2485:2716   */\n  iszero\n  tag_82\n  jumpi\n    /* \"#utility.yul\":2594:2597   */\n  dup1\n    /* \"#utility.yul\":2623:2671   */\n  tag_83\n    /* \"#utility.yul\":2667:2670   */\n  dup9\n    /* \"#utility.yul\":2655:2665   */\n  dup3\n    /* \"#utility.yul\":2623:2671   */\n  tag_48\n  jump\t// in\ntag_83:\n    /* \"#utility.yul\":2618:2621   */\n  dup5\n    /* \"#utility.yul\":2611:2672   */\n  mstore\n    /* \"#utility.yul\":2701:2705   */\n  0x20\n    /* \"#utility.yul\":2696:2699   */\n  dup5\n    /* \"#utility.yul\":2692:2706   */\n  add\n    /* \"#utility.yul\":2685:2706   */\n  swap4\n  pop\n    /* \"#utility.yul\":2561:2716   */\n  pop\n    /* \"#utility.yul\":2545:2549   */\n  0x20\n    /* \"#utility.yul\":2540:2543   */\n  dup2\n    /* \"#utility.yul\":2536:2550   */\n  add\n    /* \"#utility.yul\":2529:2550   */\n  swap1\n  pop\n    /* \"#utility.yul\":2485:2716   */\n  jump(tag_80)\ntag_82:\n    /* \"#utility.yul\":2489:2510   */\n  pop\n    /* \"#utility.yul\":2103:2722   */\n  pop\n  pop\n    /* \"#utility.yul\":1990:2722   */\n  swap4\n  swap3\n  pop\n  pop\n  pop\n  jump\t// out\n    /* \"#utility.yul\":2745:3130   */\ntag_50:\n    /* \"#utility.yul\":2827:2832   */\n  0x00\n    /* \"#utility.yul\":2876:2879   */\n  dup3\n    /* \"#utility.yul\":2869:2873   */\n  0x1f\n    /* \"#utility.yul\":2861:2867   */\n  dup4\n    /* \"#utility.yul\":2857:2874   */\n  add\n    /* \"#utility.yul\":2853:2880   */\n  slt\n    /* \"#utility.yul\":2843:2965   */\n  tag_85\n  jumpi\n    /* \"#utility.yul\":2884:2963   */\n  tag_86\n  tag_40\n  jump\t// in\ntag_86:\n    /* \"#utility.yul\":2843:2965   */\ntag_85:\n    /* \"#utility.yul\":2994:3000   */\n  dup2\n    /* \"#utility.yul\":2988:3001   */\n  mload\n    /* \"#utility.yul\":3019:3124   */\n  tag_87\n    /* \"#utility.yul\":3120:3123   */\n  dup5\n    /* \"#utility.yul\":3112:3118   */\n  dup3\n    /* \"#utility.yul\":3105:3109   */\n  0x20\n    /* \"#utility.yul\":3097:3103   */\n  dup7\n    /* \"#utility.yul\":3093:3110   */\n  add\n    /* \"#utility.yul\":3019:3124   */\n  tag_49\n  jump\t// in\ntag_87:\n    /* \"#utility.yul\":3010:3124   */\n  swap2\n  pop\n    /* \"#utility.yul\":2833:3130   */\n  pop\n    /* \"#utility.yul\":2745:3130   */\n  swap3\n  swap2\n  pop\n  pop\n  jump\t// out\n    /* \"#utility.yul\":3136:3690   */\ntag_15:\n    /* \"#utility.yul\":3231:3237   */\n  0x00\n    /* \"#utility.yul\":3280:3282   */\n  0x20\n    /* \"#utility.yul\":3268:3277   */\n  dup3\n    /* \"#utility.yul\":3259:3266   */\n  dup5\n    /* \"#utility.yul\":3255:3278   */\n  sub\n    /* \"#utility.yul\":3251:3283   */\n  slt\n    /* \"#utility.yul\":3248:3367   */\n  iszero\n  tag_89\n  jumpi\n    /* \"#utility.yul\":3286:3365   */\n  tag_90\n  tag_38\n  jump\t// in\ntag_90:\n    /* \"#utility.yul\":3248:3367   */\ntag_89:\n    /* \"#utility.yul\":3427:3428   */\n  0x00\n    /* \"#utility.yul\":3416:3425   */\n  dup3\n    /* \"#utility.yul\":3412:3429   */\n  add\n    /* \"#utility.yul\":3406:3430   */\n  mload\n    /* \"#utility.yul\":3457:3475   */\n  0xffffffffffffffff\n    /* \"#utility.yul\":3449:3455   */\n  dup2\n    /* \"#utility.yul\":3446:3476   */\n  gt\n    /* \"#utility.yul\":3443:3560   */\n  iszero\n  tag_91\n  jumpi\n    /* \"#utility.yul\":3479:3558   */\n  tag_92\n  tag_39\n  jump\t// in\ntag_92:\n    /* \"#utility.yul\":3443:3560   */\ntag_91:\n    /* \"#utility.yul\":3584:3673   */\n  tag_93\n    /* \"#utility.yul\":3665:3672   */\n  dup5\n    /* \"#utility.yul\":3656:3662   */\n  dup3\n    /* \"#utility.yul\":3645:3654   */\n  dup6\n    /* \"#utility.yul\":3641:3663   */\n  add\n    /* \"#utility.yul\":3584:3673   */\n  tag_50\n  jump\t// in\ntag_93:\n    /* \"#utility.yul\":3574:3673   */\n  swap2\n  pop\n    /* \"#utility.yul\":3377:3683   */\n  pop\n    /* \"#utility.yul\":3136:3690   */\n  swap3\n  swap2\n  pop\n  pop\n  jump\t// out\n    /* \"#utility.yul\":3696:3876   */\ntag_23:\n    /* \"#utility.yul\":3744:3821   */\n  0x4e487b7100000000000000000000000000000000000000000000000000000000\n    /* \"#utility.yul\":3741:3742   */\n  0x00\n    /* \"#utility.yul\":3734:3822   */\n  mstore\n    /* \"#utility.yul\":3841:3845   */\n  0x32\n    /* \"#utility.yul\":3838:3839   */\n  0x04\n    /* \"#utility.yul\":3831:3846   */\n  mstore\n    /* \"#utility.yul\":3865:3869   */\n  0x24\n    /* \"#utility.yul\":3862:3863   */\n  0x00\n    /* \"#utility.yul\":3855:3870   */\n  revert\n    /* \"solidityDemo1/test_zhioryinyong.sol\":61:1746  contract zhioryinyong {... */\ntag_25:\n  dataSize(sub_0)\n  dup1\n  dataOffset(sub_0)\n  0x00\n  codecopy\n  0x00\n  return\nstop\n\nsub_0: assembly {\n        /* \"solidityDemo1/test_zhioryinyong.sol\":61:1746  contract zhioryinyong {... */\n      mstore(0x40, 0x80)\n      callvalue\n      dup1\n      iszero\n      tag_1\n      jumpi\n      0x00\n      dup1\n      revert\n    tag_1:\n      pop\n      jumpi(tag_2, lt(calldatasize, 0x04))\n      shr(0xe0, calldataload(0x00))\n      dup1\n      0x71e5ee5f\n      gt\n      tag_15\n      jumpi\n      dup1\n      0x71e5ee5f\n      eq\n      tag_9\n      jumpi\n      dup1\n      0x8732ded8\n      eq\n      tag_10\n      jumpi\n      dup1\n      0x92a789f9\n      eq\n      tag_11\n      jumpi\n      dup1\n      0xb61f14a5\n      eq\n      tag_12\n      jumpi\n      dup1\n      0xd087d67a\n      eq\n      tag_13\n      jumpi\n      dup1\n      0xd3b087ba\n      eq\n      tag_14\n      jumpi\n      jump(tag_2)\n    tag_15:\n      dup1\n      0x0a8e8e01\n      eq\n      tag_3\n      jumpi\n      dup1\n      0x26b0ba1d\n      eq\n      tag_4\n      jumpi\n      dup1\n      0x457f0570\n      eq\n      tag_5\n      jumpi\n      dup1\n      0x66e41cb7\n      eq\n      tag_6\n      jumpi\n      dup1\n      0x6987b1fb\n      eq\n      tag_7\n      jumpi\n      dup1\n      0x6b59084d\n      eq\n      tag_8\n      jumpi\n    tag_2:\n      0x00\n      dup1\n      revert\n        /* \"solidityDemo1/test_zhioryinyong.sol\":1011:1277  function test3() public pure returns (uint256,uint256) {... */\n    tag_3:\n      tag_16\n      tag_17\n      jump\t// in\n    tag_16:\n      mload(0x40)\n      tag_18\n      swap3\n      swap2\n      swap1\n      tag_19\n      jump\t// in\n    tag_18:\n      mload(0x40)\n      dup1\n      swap2\n      sub\n      swap1\n      return\n        /* \"solidityDemo1/test_zhioryinyong.sol\":1289:1507  function test4(uint256[] memory arr7) public pure returns (uint256,uint256) {... */\n    tag_4:\n      tag_20\n      0x04\n      dup1\n      calldatasize\n      sub\n      dup2\n      add\n      swap1\n      tag_21\n      swap2\n      swap1\n      tag_22\n      jump\t// in\n    tag_21:\n      tag_23\n      jump\t// in\n    tag_20:\n      mload(0x40)\n      tag_24\n      swap3\n      swap2\n      swap1\n      tag_19\n      jump\t// in\n    tag_24:\n      mload(0x40)\n      dup1\n      swap2\n      sub\n      swap1\n      return\n        /* \"solidityDemo1/test_zhioryinyong.sol\":255:277  uint256[] public arr11 */\n    tag_5:\n      tag_25\n      0x04\n      dup1\n      calldatasize\n      sub\n      dup2\n      add\n      swap1\n      tag_26\n      swap2\n      swap1\n      tag_27\n      jump\t// in\n    tag_26:\n      tag_28\n      jump\t// in\n    tag_25:\n      mload(0x40)\n      tag_29\n      swap2\n      swap1\n      tag_30\n      jump\t// in\n    tag_29:\n      mload(0x40)\n      dup1\n      swap2\n      sub\n      swap1\n      return\n        /* \"solidityDemo1/test_zhioryinyong.sol\":866:1003  function test2() public returns (uint256,uint256) {... */\n    tag_6:\n      tag_31\n      tag_32\n      jump\t// in\n    tag_31:\n      mload(0x40)\n      tag_33\n      swap3\n      swap2\n      swap1\n      tag_19\n      jump\t// in\n    tag_33:\n      mload(0x40)\n      dup1\n      swap2\n      sub\n      swap1\n      return\n        /* \"solidityDemo1/test_zhioryinyong.sol\":138:178  uint256[] public arr1 = new uint256[](3) */\n    tag_7:\n      tag_34\n      0x04\n      dup1\n      calldatasize\n      sub\n      dup2\n      add\n      swap1\n      tag_35\n      swap2\n      swap1\n      tag_27\n      jump\t// in\n    tag_35:\n      tag_36\n      jump\t// in\n    tag_34:\n      mload(0x40)\n      tag_37\n      swap2\n      swap1\n      tag_30\n      jump\t// in\n    tag_37:\n      mload(0x40)\n      dup1\n      swap2\n      sub\n      swap1\n      return\n        /* \"solidityDemo1/test_zhioryinyong.sol\":698:858  function test1() public returns (uint256,uint256) {... */\n    tag_8:\n      tag_38\n      tag_39\n      jump\t// in\n    tag_38:\n      mload(0x40)\n      tag_40\n      swap3\n      swap2\n      swap1\n      tag_19\n      jump\t// in\n    tag_40:\n      mload(0x40)\n      dup1\n      swap2\n      sub\n      swap1\n      return\n        /* \"solidityDemo1/test_zhioryinyong.sol\":92:131  uint256[] public arr = new uint256[](3) */\n    tag_9:\n      tag_41\n      0x04\n      dup1\n      calldatasize\n      sub\n      dup2\n      add\n      swap1\n      tag_42\n      swap2\n      swap1\n      tag_27\n      jump\t// in\n    tag_42:\n      tag_43\n      jump\t// in\n    tag_41:\n      mload(0x40)\n      tag_44\n      swap2\n      swap1\n      tag_30\n      jump\t// in\n    tag_44:\n      mload(0x40)\n      dup1\n      swap2\n      sub\n      swap1\n      return\n        /* \"solidityDemo1/test_zhioryinyong.sol\":187:208  uint256[] public arr3 */\n    tag_10:\n      tag_45\n      0x04\n      dup1\n      calldatasize\n      sub\n      dup2\n      add\n      swap1\n      tag_46\n      swap2\n      swap1\n      tag_27\n      jump\t// in\n    tag_46:\n      tag_47\n      jump\t// in\n    tag_45:\n      mload(0x40)\n      tag_48\n      swap2\n      swap1\n      tag_30\n      jump\t// in\n    tag_48:\n      mload(0x40)\n      dup1\n      swap2\n      sub\n      swap1\n      return\n        /* \"solidityDemo1/test_zhioryinyong.sol\":1519:1739  function test5(uint256[] calldata arr9) public pure returns (uint256,uint256) {... */\n    tag_11:\n      tag_49\n      0x04\n      dup1\n      calldatasize\n      sub\n      dup2\n      add\n      swap1\n      tag_50\n      swap2\n      swap1\n      tag_51\n      jump\t// in\n    tag_50:\n      tag_52\n      jump\t// in\n    tag_49:\n      mload(0x40)\n      tag_53\n      swap3\n      swap2\n      swap1\n      tag_19\n      jump\t// in\n    tag_53:\n      mload(0x40)\n      dup1\n      swap2\n      sub\n      swap1\n      return\n        /* \"solidityDemo1/test_zhioryinyong.sol\":215:246  uint256[] public arr4 = [4,5,6] */\n    tag_12:\n      tag_54\n      0x04\n      dup1\n      calldatasize\n      sub\n      dup2\n      add\n      swap1\n      tag_55\n      swap2\n      swap1\n      tag_27\n      jump\t// in\n    tag_55:\n      tag_56\n      jump\t// in\n    tag_54:\n      mload(0x40)\n      tag_57\n      swap2\n      swap1\n      tag_30\n      jump\t// in\n    tag_57:\n      mload(0x40)\n      dup1\n      swap2\n      sub\n      swap1\n      return\n        /* \"solidityDemo1/test_zhioryinyong.sol\":584:686  function testCon() public view returns (uint256,uint256) {... */\n    tag_13:\n      tag_58\n      tag_59\n      jump\t// in\n    tag_58:\n      mload(0x40)\n      tag_60\n      swap3\n      swap2\n      swap1\n      tag_19\n      jump\t// in\n    tag_60:\n      mload(0x40)\n      dup1\n      swap2\n      sub\n      swap1\n      return\n        /* \"solidityDemo1/test_zhioryinyong.sol\":284:306  uint256[] public arr12 */\n    tag_14:\n      tag_61\n      0x04\n      dup1\n      calldatasize\n      sub\n      dup2\n      add\n      swap1\n      tag_62\n      swap2\n      swap1\n      tag_27\n      jump\t// in\n    tag_62:\n      tag_63\n      jump\t// in\n    tag_61:\n      mload(0x40)\n      tag_64\n      swap2\n      swap1\n      tag_30\n      jump\t// in\n    tag_64:\n      mload(0x40)\n      dup1\n      swap2\n      sub\n      swap1\n      return\n        /* \"solidityDemo1/test_zhioryinyong.sol\":1011:1277  function test3() public pure returns (uint256,uint256) {... */\n    tag_17:\n        /* \"solidityDemo1/test_zhioryinyong.sol\":1049:1056  uint256 */\n      0x00\n        /* \"solidityDemo1/test_zhioryinyong.sol\":1057:1064  uint256 */\n      dup1\n        /* \"solidityDemo1/test_zhioryinyong.sol\":1077:1098  uint256[] memory arr5 */\n      0x00\n        /* \"solidityDemo1/test_zhioryinyong.sol\":1115:1116  3 */\n      0x03\n        /* \"solidityDemo1/test_zhioryinyong.sol\":1101:1117  new uint256[](3) */\n      0xffffffffffffffff\n      dup2\n      gt\n      iszero\n      tag_66\n      jumpi\n      tag_67\n      tag_68\n      jump\t// in\n    tag_67:\n    tag_66:\n      mload(0x40)\n      swap1\n      dup1\n      dup3\n      mstore\n      dup1\n      0x20\n      mul\n      0x20\n      add\n      dup3\n      add\n      0x40\n      mstore\n      dup1\n      iszero\n      tag_69\n      jumpi\n      dup2\n      0x20\n      add\n      0x20\n      dup3\n      mul\n      dup1\n      calldatasize\n      dup4\n      calldatacopy\n      dup1\n      dup3\n      add\n      swap2\n      pop\n      pop\n      swap1\n      pop\n    tag_69:\n      pop\n        /* \"solidityDemo1/test_zhioryinyong.sol\":1077:1117  uint256[] memory arr5 = new uint256[](3) */\n      swap1\n      pop\n        /* \"solidityDemo1/test_zhioryinyong.sol\":1128:1149  uint256[] memory arr6 */\n      0x00\n        /* \"solidityDemo1/test_zhioryinyong.sol\":1166:1167  3 */\n      0x03\n        /* \"solidityDemo1/test_zhioryinyong.sol\":1152:1168  new uint256[](3) */\n      0xffffffffffffffff\n      dup2\n      gt\n      iszero\n      tag_70\n      jumpi\n      tag_71\n      tag_68\n      jump\t// in\n    tag_71:\n    tag_70:\n      mload(0x40)\n      swap1\n      dup1\n      dup3\n      mstore\n      dup1\n      0x20\n      mul\n      0x20\n      add\n      dup3\n      add\n      0x40\n      mstore\n      dup1\n      iszero\n      tag_72\n      jumpi\n      dup2\n      0x20\n      add\n      0x20\n      dup3\n      mul\n      dup1\n      calldatasize\n      dup4\n      calldatacopy\n      dup1\n      dup3\n      add\n      swap2\n      pop\n      pop\n      swap1\n      pop\n    tag_72:\n      pop\n        /* \"solidityDemo1/test_zhioryinyong.sol\":1128:1168  uint256[] memory arr6 = new uint256[](3) */\n      swap1\n      pop\n        /* \"solidityDemo1/test_zhioryinyong.sol\":1189:1190  6 */\n      0x06\n        /* \"solidityDemo1/test_zhioryinyong.sol\":1179:1183  arr6 */\n      dup2\n        /* \"solidityDemo1/test_zhioryinyong.sol\":1184:1185  0 */\n      0x00\n        /* \"solidityDemo1/test_zhioryinyong.sol\":1179:1186  arr6[0] */\n      dup2\n      mload\n      dup2\n      lt\n      tag_73\n      jumpi\n      tag_74\n      tag_75\n      jump\t// in\n    tag_74:\n    tag_73:\n      0x20\n      mul\n      0x20\n      add\n      add\n        /* \"solidityDemo1/test_zhioryinyong.sol\":1179:1190  arr6[0] = 6 */\n      dup2\n      dup2\n      mstore\n      pop\n      pop\n        /* \"solidityDemo1/test_zhioryinyong.sol\":1208:1212  arr6 */\n      dup1\n        /* \"solidityDemo1/test_zhioryinyong.sol\":1201:1212  arr5 = arr6 */\n      swap2\n      pop\n        /* \"solidityDemo1/test_zhioryinyong.sol\":1233:1234  1 */\n      0x01\n        /* \"solidityDemo1/test_zhioryinyong.sol\":1223:1227  arr5 */\n      dup3\n        /* \"solidityDemo1/test_zhioryinyong.sol\":1228:1229  0 */\n      0x00\n        /* \"solidityDemo1/test_zhioryinyong.sol\":1223:1230  arr5[0] */\n      dup2\n      mload\n      dup2\n      lt\n      tag_76\n      jumpi\n      tag_77\n      tag_75\n      jump\t// in\n    tag_77:\n    tag_76:\n      0x20\n      mul\n      0x20\n      add\n      add\n        /* \"solidityDemo1/test_zhioryinyong.sol\":1223:1234  arr5[0] = 1 */\n      dup2\n      dup2\n      mstore\n      pop\n      pop\n        /* \"solidityDemo1/test_zhioryinyong.sol\":1253:1257  arr5 */\n      dup2\n        /* \"solidityDemo1/test_zhioryinyong.sol\":1258:1259  0 */\n      0x00\n        /* \"solidityDemo1/test_zhioryinyong.sol\":1253:1260  arr5[0] */\n      dup2\n      mload\n      dup2\n      lt\n      tag_78\n      jumpi\n      tag_79\n      tag_75\n      jump\t// in\n    tag_79:\n    tag_78:\n      0x20\n      mul\n      0x20\n      add\n      add\n      mload\n        /* \"solidityDemo1/test_zhioryinyong.sol\":1261:1265  arr6 */\n      dup2\n        /* \"solidityDemo1/test_zhioryinyong.sol\":1266:1267  0 */\n      0x00\n        /* \"solidityDemo1/test_zhioryinyong.sol\":1261:1268  arr6[0] */\n      dup2\n      mload\n      dup2\n      lt\n      tag_80\n      jumpi\n      tag_81\n      tag_75\n      jump\t// in\n    tag_81:\n    tag_80:\n      0x20\n      mul\n      0x20\n      add\n      add\n      mload\n        /* \"solidityDemo1/test_zhioryinyong.sol\":1245:1269  return (arr5[0],arr6[0]) */\n      swap4\n      pop\n      swap4\n      pop\n      pop\n      pop\n        /* \"solidityDemo1/test_zhioryinyong.sol\":1011:1277  function test3() public pure returns (uint256,uint256) {... */\n      swap1\n      swap2\n      jump\t// out\n        /* \"solidityDemo1/test_zhioryinyong.sol\":1289:1507  function test4(uint256[] memory arr7) public pure returns (uint256,uint256) {... */\n    tag_23:\n        /* \"solidityDemo1/test_zhioryinyong.sol\":1348:1355  uint256 */\n      0x00\n        /* \"solidityDemo1/test_zhioryinyong.sol\":1356:1363  uint256 */\n      dup1\n        /* \"solidityDemo1/test_zhioryinyong.sol\":1376:1397  uint256[] memory arr8 */\n      0x00\n        /* \"solidityDemo1/test_zhioryinyong.sol\":1414:1415  3 */\n      0x03\n        /* \"solidityDemo1/test_zhioryinyong.sol\":1400:1416  new uint256[](3) */\n      0xffffffffffffffff\n      dup2\n      gt\n      iszero\n      tag_83\n      jumpi\n      tag_84\n      tag_68\n      jump\t// in\n    tag_84:\n    tag_83:\n      mload(0x40)\n      swap1\n      dup1\n      dup3\n      mstore\n      dup1\n      0x20\n      mul\n      0x20\n      add\n      dup3\n      add\n      0x40\n      mstore\n      dup1\n      iszero\n      tag_85\n      jumpi\n      dup2\n      0x20\n      add\n      0x20\n      dup3\n      mul\n      dup1\n      calldatasize\n      dup4\n      calldatacopy\n      dup1\n      dup3\n      add\n      swap2\n      pop\n      pop\n      swap1\n      pop\n    tag_85:\n      pop\n        /* \"solidityDemo1/test_zhioryinyong.sol\":1376:1416  uint256[] memory arr8 = new uint256[](3) */\n      swap1\n      pop\n        /* \"solidityDemo1/test_zhioryinyong.sol\":1434:1438  arr8 */\n      dup1\n        /* \"solidityDemo1/test_zhioryinyong.sol\":1427:1438  arr7 = arr8 */\n      swap4\n      pop\n        /* \"solidityDemo1/test_zhioryinyong.sol\":1459:1460  6 */\n      0x06\n        /* \"solidityDemo1/test_zhioryinyong.sol\":1449:1453  arr8 */\n      dup2\n        /* \"solidityDemo1/test_zhioryinyong.sol\":1454:1455  0 */\n      0x00\n        /* \"solidityDemo1/test_zhioryinyong.sol\":1449:1456  arr8[0] */\n      dup2\n      mload\n      dup2\n      lt\n      tag_86\n      jumpi\n      tag_87\n      tag_75\n      jump\t// in\n    tag_87:\n    tag_86:\n      0x20\n      mul\n      0x20\n      add\n      add\n        /* \"solidityDemo1/test_zhioryinyong.sol\":1449:1460  arr8[0] = 6 */\n      dup2\n      dup2\n      mstore\n      pop\n      pop\n        /* \"solidityDemo1/test_zhioryinyong.sol\":1479:1483  arr7 */\n      dup4\n        /* \"solidityDemo1/test_zhioryinyong.sol\":1484:1485  0 */\n      0x00\n        /* \"solidityDemo1/test_zhioryinyong.sol\":1479:1486  arr7[0] */\n      dup2\n      mload\n      dup2\n      lt\n      tag_88\n      jumpi\n      tag_89\n      tag_75\n      jump\t// in\n    tag_89:\n    tag_88:\n      0x20\n      mul\n      0x20\n      add\n      add\n      mload\n        /* \"solidityDemo1/test_zhioryinyong.sol\":1487:1491  arr8 */\n      dup2\n        /* \"solidityDemo1/test_zhioryinyong.sol\":1492:1493  0 */\n      0x00\n        /* \"solidityDemo1/test_zhioryinyong.sol\":1487:1494  arr8[0] */\n      dup2\n      mload\n      dup2\n      lt\n      tag_90\n      jumpi\n      tag_91\n      tag_75\n      jump\t// in\n    tag_91:\n    tag_90:\n      0x20\n      mul\n      0x20\n      add\n      add\n      mload\n        /* \"solidityDemo1/test_zhioryinyong.sol\":1471:1495  return (arr7[0],arr8[0]) */\n      swap3\n      pop\n      swap3\n      pop\n      pop\n        /* \"solidityDemo1/test_zhioryinyong.sol\":1289:1507  function test4(uint256[] memory arr7) public pure returns (uint256,uint256) {... */\n      swap2\n      pop\n      swap2\n      jump\t// out\n        /* \"solidityDemo1/test_zhioryinyong.sol\":255:277  uint256[] public arr11 */\n    tag_28:\n      0x04\n      dup2\n      dup2\n      sload\n      dup2\n      lt\n      tag_92\n      jumpi\n      0x00\n      dup1\n      revert\n    tag_92:\n      swap1\n      0x00\n      mstore\n      keccak256(0x00, 0x20)\n      add\n      0x00\n      swap2\n      pop\n      swap1\n      pop\n      sload\n      dup2\n      jump\t// out\n        /* \"solidityDemo1/test_zhioryinyong.sol\":866:1003  function test2() public returns (uint256,uint256) {... */\n    tag_32:\n        /* \"solidityDemo1/test_zhioryinyong.sol\":899:906  uint256 */\n      0x00\n        /* \"solidityDemo1/test_zhioryinyong.sol\":907:914  uint256 */\n      dup1\n        /* \"solidityDemo1/test_zhioryinyong.sol\":934:938  arr4 */\n      0x03\n        /* \"solidityDemo1/test_zhioryinyong.sol\":927:931  arr3 */\n      0x02\n        /* \"solidityDemo1/test_zhioryinyong.sol\":927:938  arr3 = arr4 */\n      swap1\n      dup1\n      sload\n      tag_95\n      swap3\n      swap2\n      swap1\n      tag_96\n      jump\t// in\n    tag_95:\n      pop\n        /* \"solidityDemo1/test_zhioryinyong.sol\":959:960  6 */\n      0x06\n        /* \"solidityDemo1/test_zhioryinyong.sol\":949:953  arr4 */\n      0x03\n        /* \"solidityDemo1/test_zhioryinyong.sol\":954:955  0 */\n      0x00\n        /* \"solidityDemo1/test_zhioryinyong.sol\":949:956  arr4[0] */\n      dup2\n      sload\n      dup2\n      lt\n      tag_97\n      jumpi\n      tag_98\n      tag_75\n      jump\t// in\n    tag_98:\n    tag_97:\n      swap1\n      0x00\n      mstore\n      keccak256(0x00, 0x20)\n      add\n        /* \"solidityDemo1/test_zhioryinyong.sol\":949:960  arr4[0] = 6 */\n      dup2\n      swap1\n      sstore\n      pop\n        /* \"solidityDemo1/test_zhioryinyong.sol\":979:983  arr3 */\n      0x02\n        /* \"solidityDemo1/test_zhioryinyong.sol\":984:985  0 */\n      0x00\n        /* \"solidityDemo1/test_zhioryinyong.sol\":979:986  arr3[0] */\n      dup2\n      sload\n      dup2\n      lt\n      tag_100\n      jumpi\n      tag_101\n      tag_75\n      jump\t// in\n    tag_101:\n    tag_100:\n      swap1\n      0x00\n      mstore\n      keccak256(0x00, 0x20)\n      add\n      sload\n        /* \"solidityDemo1/test_zhioryinyong.sol\":987:991  arr4 */\n      0x03\n        /* \"solidityDemo1/test_zhioryinyong.sol\":992:993  0 */\n      0x00\n        /* \"solidityDemo1/test_zhioryinyong.sol\":987:994  arr4[0] */\n      dup2\n      sload\n      dup2\n      lt\n      tag_103\n      jumpi\n      tag_104\n      tag_75\n      jump\t// in\n    tag_104:\n    tag_103:\n      swap1\n      0x00\n      mstore\n      keccak256(0x00, 0x20)\n      add\n      sload\n        /* \"solidityDemo1/test_zhioryinyong.sol\":971:995  return (arr3[0],arr4[0]) */\n      swap2\n      pop\n      swap2\n      pop\n        /* \"solidityDemo1/test_zhioryinyong.sol\":866:1003  function test2() public returns (uint256,uint256) {... */\n      swap1\n      swap2\n      jump\t// out\n        /* \"solidityDemo1/test_zhioryinyong.sol\":138:178  uint256[] public arr1 = new uint256[](3) */\n    tag_36:\n      0x01\n      dup2\n      dup2\n      sload\n      dup2\n      lt\n      tag_106\n      jumpi\n      0x00\n      dup1\n      revert\n    tag_106:\n      swap1\n      0x00\n      mstore\n      keccak256(0x00, 0x20)\n      add\n      0x00\n      swap2\n      pop\n      swap1\n      pop\n      sload\n      dup2\n      jump\t// out\n        /* \"solidityDemo1/test_zhioryinyong.sol\":698:858  function test1() public returns (uint256,uint256) {... */\n    tag_39:\n        /* \"solidityDemo1/test_zhioryinyong.sol\":731:738  uint256 */\n      0x00\n        /* \"solidityDemo1/test_zhioryinyong.sol\":739:746  uint256 */\n      dup1\n        /* \"solidityDemo1/test_zhioryinyong.sol\":759:773  arr1 = [1,2,3] */\n      mload(0x40)\n      dup1\n      0x60\n      add\n      0x40\n      mstore\n      dup1\n        /* \"solidityDemo1/test_zhioryinyong.sol\":767:768  1 */\n      0x01\n        /* \"solidityDemo1/test_zhioryinyong.sol\":759:773  arr1 = [1,2,3] */\n      0xff\n      and\n      dup2\n      mstore\n      0x20\n      add\n        /* \"solidityDemo1/test_zhioryinyong.sol\":769:770  2 */\n      0x02\n        /* \"solidityDemo1/test_zhioryinyong.sol\":759:773  arr1 = [1,2,3] */\n      0xff\n      and\n      dup2\n      mstore\n      0x20\n      add\n        /* \"solidityDemo1/test_zhioryinyong.sol\":771:772  3 */\n      0x03\n        /* \"solidityDemo1/test_zhioryinyong.sol\":759:773  arr1 = [1,2,3] */\n      0xff\n      and\n      dup2\n      mstore\n      pop\n        /* \"solidityDemo1/test_zhioryinyong.sol\":759:763  arr1 */\n      0x01\n        /* \"solidityDemo1/test_zhioryinyong.sol\":759:773  arr1 = [1,2,3] */\n      swap1\n      0x03\n      tag_109\n      swap3\n      swap2\n      swap1\n      tag_110\n      jump\t// in\n    tag_109:\n      pop\n        /* \"solidityDemo1/test_zhioryinyong.sol\":790:794  arr1 */\n      0x01\n        /* \"solidityDemo1/test_zhioryinyong.sol\":784:787  arr */\n      0x00\n        /* \"solidityDemo1/test_zhioryinyong.sol\":784:794  arr = arr1 */\n      swap1\n      dup1\n      sload\n      tag_111\n      swap3\n      swap2\n      swap1\n      tag_96\n      jump\t// in\n    tag_111:\n      pop\n        /* \"solidityDemo1/test_zhioryinyong.sol\":815:816  6 */\n      0x06\n        /* \"solidityDemo1/test_zhioryinyong.sol\":805:809  arr1 */\n      0x01\n        /* \"solidityDemo1/test_zhioryinyong.sol\":810:811  0 */\n      0x00\n        /* \"solidityDemo1/test_zhioryinyong.sol\":805:812  arr1[0] */\n      dup2\n      sload\n      dup2\n      lt\n      tag_112\n      jumpi\n      tag_113\n      tag_75\n      jump\t// in\n    tag_113:\n    tag_112:\n      swap1\n      0x00\n      mstore\n      keccak256(0x00, 0x20)\n      add\n        /* \"solidityDemo1/test_zhioryinyong.sol\":805:816  arr1[0] = 6 */\n      dup2\n      swap1\n      sstore\n      pop\n        /* \"solidityDemo1/test_zhioryinyong.sol\":835:838  arr */\n      0x00\n        /* \"solidityDemo1/test_zhioryinyong.sol\":839:840  0 */\n      dup1\n        /* \"solidityDemo1/test_zhioryinyong.sol\":835:841  arr[0] */\n      dup2\n      sload\n      dup2\n      lt\n      tag_115\n      jumpi\n      tag_116\n      tag_75\n      jump\t// in\n    tag_116:\n    tag_115:\n      swap1\n      0x00\n      mstore\n      keccak256(0x00, 0x20)\n      add\n      sload\n        /* \"solidityDemo1/test_zhioryinyong.sol\":842:846  arr1 */\n      0x01\n        /* \"solidityDemo1/test_zhioryinyong.sol\":847:848  0 */\n      0x00\n        /* \"solidityDemo1/test_zhioryinyong.sol\":842:849  arr1[0] */\n      dup2\n      sload\n      dup2\n      lt\n      tag_118\n      jumpi\n      tag_119\n      tag_75\n      jump\t// in\n    tag_119:\n    tag_118:\n      swap1\n      0x00\n      mstore\n      keccak256(0x00, 0x20)\n      add\n      sload\n        /* \"solidityDemo1/test_zhioryinyong.sol\":827:850  return (arr[0],arr1[0]) */\n      swap2\n      pop\n      swap2\n      pop\n        /* \"solidityDemo1/test_zhioryinyong.sol\":698:858  function test1() public returns (uint256,uint256) {... */\n      swap1\n      swap2\n      jump\t// out\n        /* \"solidityDemo1/test_zhioryinyong.sol\":92:131  uint256[] public arr = new uint256[](3) */\n    tag_43:\n      0x00\n      dup2\n      dup2\n      sload\n      dup2\n      lt\n      tag_121\n      jumpi\n      0x00\n      dup1\n      revert\n    tag_121:\n      swap1\n      0x00\n      mstore\n      keccak256(0x00, 0x20)\n      add\n      0x00\n      swap2\n      pop\n      swap1\n      pop\n      sload\n      dup2\n      jump\t// out\n        /* \"solidityDemo1/test_zhioryinyong.sol\":187:208  uint256[] public arr3 */\n    tag_47:\n      0x02\n      dup2\n      dup2\n      sload\n      dup2\n      lt\n      tag_123\n      jumpi\n      0x00\n      dup1\n      revert\n    tag_123:\n      swap1\n      0x00\n      mstore\n      keccak256(0x00, 0x20)\n      add\n      0x00\n      swap2\n      pop\n      swap1\n      pop\n      sload\n      dup2\n      jump\t// out\n        /* \"solidityDemo1/test_zhioryinyong.sol\":1519:1739  function test5(uint256[] calldata arr9) public pure returns (uint256,uint256) {... */\n    tag_52:\n        /* \"solidityDemo1/test_zhioryinyong.sol\":1580:1587  uint256 */\n      0x00\n        /* \"solidityDemo1/test_zhioryinyong.sol\":1588:1595  uint256 */\n      dup1\n        /* \"solidityDemo1/test_zhioryinyong.sol\":1608:1630  uint256[] memory arr10 */\n      0x00\n        /* \"solidityDemo1/test_zhioryinyong.sol\":1647:1648  3 */\n      0x03\n        /* \"solidityDemo1/test_zhioryinyong.sol\":1633:1649  new uint256[](3) */\n      0xffffffffffffffff\n      dup2\n      gt\n      iszero\n      tag_126\n      jumpi\n      tag_127\n      tag_68\n      jump\t// in\n    tag_127:\n    tag_126:\n      mload(0x40)\n      swap1\n      dup1\n      dup3\n      mstore\n      dup1\n      0x20\n      mul\n      0x20\n      add\n      dup3\n      add\n      0x40\n      mstore\n      dup1\n      iszero\n      tag_128\n      jumpi\n      dup2\n      0x20\n      add\n      0x20\n      dup3\n      mul\n      dup1\n      calldatasize\n      dup4\n      calldatacopy\n      dup1\n      dup3\n      add\n      swap2\n      pop\n      pop\n      swap1\n      pop\n    tag_128:\n      pop\n        /* \"solidityDemo1/test_zhioryinyong.sol\":1608:1649  uint256[] memory arr10 = new uint256[](3) */\n      swap1\n      pop\n        /* \"solidityDemo1/test_zhioryinyong.sol\":1668:1672  arr9 */\n      dup5\n      dup5\n        /* \"solidityDemo1/test_zhioryinyong.sol\":1660:1672  arr10 = arr9 */\n      dup1\n      dup1\n      0x20\n      mul\n      0x20\n      add\n      mload(0x40)\n      swap1\n      dup2\n      add\n      0x40\n      mstore\n      dup1\n      swap4\n      swap3\n      swap2\n      swap1\n      dup2\n      dup2\n      mstore\n      0x20\n      add\n      dup4\n      dup4\n      0x20\n      mul\n      dup1\n      dup3\n      dup5\n      calldatacopy\n      0x00\n      dup2\n      dup5\n      add\n      mstore\n      not(0x1f)\n      0x1f\n      dup3\n      add\n      and\n      swap1\n      pop\n      dup1\n      dup4\n      add\n      swap3\n      pop\n      pop\n      pop\n      pop\n      pop\n      pop\n      pop\n      swap1\n      pop\n        /* \"solidityDemo1/test_zhioryinyong.sol\":1694:1695  6 */\n      0x06\n        /* \"solidityDemo1/test_zhioryinyong.sol\":1683:1688  arr10 */\n      dup2\n        /* \"solidityDemo1/test_zhioryinyong.sol\":1689:1690  0 */\n      0x00\n        /* \"solidityDemo1/test_zhioryinyong.sol\":1683:1691  arr10[0] */\n      dup2\n      mload\n      dup2\n      lt\n      tag_129\n      jumpi\n      tag_130\n      tag_75\n      jump\t// in\n    tag_130:\n    tag_129:\n      0x20\n      mul\n      0x20\n      add\n      add\n        /* \"solidityDemo1/test_zhioryinyong.sol\":1683:1695  arr10[0] = 6 */\n      dup2\n      dup2\n      mstore\n      pop\n      pop\n        /* \"solidityDemo1/test_zhioryinyong.sol\":1714:1718  arr9 */\n      dup5\n      dup5\n        /* \"solidityDemo1/test_zhioryinyong.sol\":1719:1720  0 */\n      0x00\n        /* \"solidityDemo1/test_zhioryinyong.sol\":1714:1721  arr9[0] */\n      dup2\n      dup2\n      lt\n      tag_131\n      jumpi\n      tag_132\n      tag_75\n      jump\t// in\n    tag_132:\n    tag_131:\n      swap1\n      pop\n      0x20\n      mul\n      add\n      calldataload\n        /* \"solidityDemo1/test_zhioryinyong.sol\":1722:1727  arr10 */\n      dup2\n        /* \"solidityDemo1/test_zhioryinyong.sol\":1728:1729  0 */\n      0x00\n        /* \"solidityDemo1/test_zhioryinyong.sol\":1722:1730  arr10[0] */\n      dup2\n      mload\n      dup2\n      lt\n      tag_133\n      jumpi\n      tag_134\n      tag_75\n      jump\t// in\n    tag_134:\n    tag_133:\n      0x20\n      mul\n      0x20\n      add\n      add\n      mload\n        /* \"solidityDemo1/test_zhioryinyong.sol\":1706:1731  return (arr9[0],arr10[0]) */\n      swap3\n      pop\n      swap3\n      pop\n      pop\n        /* \"solidityDemo1/test_zhioryinyong.sol\":1519:1739  function test5(uint256[] calldata arr9) public pure returns (uint256,uint256) {... */\n      swap3\n      pop\n      swap3\n      swap1\n      pop\n      jump\t// out\n        /* \"solidityDemo1/test_zhioryinyong.sol\":215:246  uint256[] public arr4 = [4,5,6] */\n    tag_56:\n      0x03\n      dup2\n      dup2\n      sload\n      dup2\n      lt\n      tag_135\n      jumpi\n      0x00\n      dup1\n      revert\n    tag_135:\n      swap1\n      0x00\n      mstore\n      keccak256(0x00, 0x20)\n      add\n      0x00\n      swap2\n      pop\n      swap1\n      pop\n      sload\n      dup2\n      jump\t// out\n        /* \"solidityDemo1/test_zhioryinyong.sol\":584:686  function testCon() public view returns (uint256,uint256) {... */\n    tag_59:\n        /* \"solidityDemo1/test_zhioryinyong.sol\":624:631  uint256 */\n      0x00\n        /* \"solidityDemo1/test_zhioryinyong.sol\":632:639  uint256 */\n      dup1\n        /* \"solidityDemo1/test_zhioryinyong.sol\":660:665  arr11 */\n      0x04\n        /* \"solidityDemo1/test_zhioryinyong.sol\":666:667  0 */\n      0x00\n        /* \"solidityDemo1/test_zhioryinyong.sol\":660:668  arr11[0] */\n      dup2\n      sload\n      dup2\n      lt\n      tag_138\n      jumpi\n      tag_139\n      tag_75\n      jump\t// in\n    tag_139:\n    tag_138:\n      swap1\n      0x00\n      mstore\n      keccak256(0x00, 0x20)\n      add\n      sload\n        /* \"solidityDemo1/test_zhioryinyong.sol\":669:674  arr12 */\n      0x05\n        /* \"solidityDemo1/test_zhioryinyong.sol\":675:676  0 */\n      0x00\n        /* \"solidityDemo1/test_zhioryinyong.sol\":669:677  arr12[0] */\n      dup2\n      sload\n      dup2\n      lt\n      tag_141\n      jumpi\n      tag_142\n      tag_75\n      jump\t// in\n    tag_142:\n    tag_141:\n      swap1\n      0x00\n      mstore\n      keccak256(0x00, 0x20)\n      add\n      sload\n        /* \"solidityDemo1/test_zhioryinyong.sol\":652:678  return (arr11[0],arr12[0]) */\n      swap2\n      pop\n      swap2\n      pop\n        /* \"solidityDemo1/test_zhioryinyong.sol\":584:686  function testCon() public view returns (uint256,uint256) {... */\n      swap1\n      swap2\n      jump\t// out\n        /* \"solidityDemo1/test_zhioryinyong.sol\":284:306  uint256[] public arr12 */\n    tag_63:\n      0x05\n      dup2\n      dup2\n      sload\n      dup2\n      lt\n      tag_144\n      jumpi\n      0x00\n      dup1\n      revert\n    tag_144:\n      swap1\n      0x00\n      mstore\n      keccak256(0x00, 0x20)\n      add\n      0x00\n      swap2\n      pop\n      swap1\n      pop\n      sload\n      dup2\n      jump\t// out\n    tag_96:\n      dup3\n      dup1\n      sload\n      dup3\n      dup3\n      sstore\n      swap1\n      0x00\n      mstore\n      keccak256(0x00, 0x20)\n      swap1\n      dup2\n      add\n      swap3\n      dup3\n      iszero\n      tag_146\n      jumpi\n      0x00\n      mstore\n      keccak256(0x00, 0x20)\n      swap2\n      dup3\n      add\n    tag_147:\n      dup3\n      dup2\n      gt\n      iszero\n      tag_148\n      jumpi\n      dup3\n      sload\n      dup3\n      sstore\n      swap2\n      0x01\n      add\n      swap2\n      swap1\n      0x01\n      add\n      swap1\n      jump(tag_147)\n    tag_148:\n    tag_146:\n      pop\n      swap1\n      pop\n      tag_149\n      swap2\n      swap1\n      tag_150\n      jump\t// in\n    tag_149:\n      pop\n      swap1\n      jump\t// out\n    tag_110:\n      dup3\n      dup1\n      sload\n      dup3\n      dup3\n      sstore\n      swap1\n      0x00\n      mstore\n      keccak256(0x00, 0x20)\n      swap1\n      dup2\n      add\n      swap3\n      dup3\n      iszero\n      tag_151\n      jumpi\n      swap2\n      0x20\n      mul\n      dup3\n      add\n    tag_152:\n      dup3\n      dup2\n      gt\n      iszero\n      tag_153\n      jumpi\n      dup3\n      mload\n      dup3\n      swap1\n      0xff\n      and\n      swap1\n      sstore\n      swap2\n      0x20\n      add\n      swap2\n      swap1\n      0x01\n      add\n      swap1\n      jump(tag_152)\n    tag_153:\n    tag_151:\n      pop\n      swap1\n      pop\n      tag_154\n      swap2\n      swap1\n      tag_150\n      jump\t// in\n    tag_154:\n      pop\n      swap1\n      jump\t// out\n    tag_150:\n    tag_155:\n      dup1\n      dup3\n      gt\n      iszero\n      tag_156\n      jumpi\n      0x00\n      dup2\n      0x00\n      swap1\n      sstore\n      pop\n      0x01\n      add\n      jump(tag_155)\n    tag_156:\n      pop\n      swap1\n      jump\t// out\n        /* \"#utility.yul\":7:84   */\n    tag_157:\n        /* \"#utility.yul\":44:51   */\n      0x00\n        /* \"#utility.yul\":73:78   */\n      dup2\n        /* \"#utility.yul\":62:78   */\n      swap1\n      pop\n        /* \"#utility.yul\":7:84   */\n      swap2\n      swap1\n      pop\n      jump\t// out\n        /* \"#utility.yul\":90:208   */\n    tag_158:\n        /* \"#utility.yul\":177:201   */\n      tag_177\n        /* \"#utility.yul\":195:200   */\n      dup2\n        /* \"#utility.yul\":177:201   */\n      tag_157\n      jump\t// in\n    tag_177:\n        /* \"#utility.yul\":172:175   */\n      dup3\n        /* \"#utility.yul\":165:202   */\n      mstore\n        /* \"#utility.yul\":90:208   */\n      pop\n      pop\n      jump\t// out\n        /* \"#utility.yul\":214:546   */\n    tag_19:\n        /* \"#utility.yul\":335:339   */\n      0x00\n        /* \"#utility.yul\":373:375   */\n      0x40\n        /* \"#utility.yul\":362:371   */\n      dup3\n        /* \"#utility.yul\":358:376   */\n      add\n        /* \"#utility.yul\":350:376   */\n      swap1\n      pop\n        /* \"#utility.yul\":386:457   */\n      tag_179\n        /* \"#utility.yul\":454:455   */\n      0x00\n        /* \"#utility.yul\":443:452   */\n      dup4\n        /* \"#utility.yul\":439:456   */\n      add\n        /* \"#utility.yul\":430:436   */\n      dup6\n        /* \"#utility.yul\":386:457   */\n      tag_158\n      jump\t// in\n    tag_179:\n        /* \"#utility.yul\":467:539   */\n      tag_180\n        /* \"#utility.yul\":535:537   */\n      0x20\n        /* \"#utility.yul\":524:533   */\n      dup4\n        /* \"#utility.yul\":520:538   */\n      add\n        /* \"#utility.yul\":511:517   */\n      dup5\n        /* \"#utility.yul\":467:539   */\n      tag_158\n      jump\t// in\n    tag_180:\n        /* \"#utility.yul\":214:546   */\n      swap4\n      swap3\n      pop\n      pop\n      pop\n      jump\t// out\n        /* \"#utility.yul\":552:627   */\n    tag_159:\n        /* \"#utility.yul\":585:591   */\n      0x00\n        /* \"#utility.yul\":618:620   */\n      0x40\n        /* \"#utility.yul\":612:621   */\n      mload\n        /* \"#utility.yul\":602:621   */\n      swap1\n      pop\n        /* \"#utility.yul\":552:627   */\n      swap1\n      jump\t// out\n        /* \"#utility.yul\":633:750   */\n    tag_160:\n        /* \"#utility.yul\":742:743   */\n      0x00\n        /* \"#utility.yul\":739:740   */\n      dup1\n        /* \"#utility.yul\":732:744   */\n      revert\n        /* \"#utility.yul\":756:873   */\n    tag_161:\n        /* \"#utility.yul\":865:866   */\n      0x00\n        /* \"#utility.yul\":862:863   */\n      dup1\n        /* \"#utility.yul\":855:867   */\n      revert\n        /* \"#utility.yul\":879:996   */\n    tag_162:\n        /* \"#utility.yul\":988:989   */\n      0x00\n        /* \"#utility.yul\":985:986   */\n      dup1\n        /* \"#utility.yul\":978:990   */\n      revert\n        /* \"#utility.yul\":1002:1104   */\n    tag_163:\n        /* \"#utility.yul\":1043:1049   */\n      0x00\n        /* \"#utility.yul\":1094:1096   */\n      0x1f\n        /* \"#utility.yul\":1090:1097   */\n      not\n        /* \"#utility.yul\":1085:1087   */\n      0x1f\n        /* \"#utility.yul\":1078:1083   */\n      dup4\n        /* \"#utility.yul\":1074:1088   */\n      add\n        /* \"#utility.yul\":1070:1098   */\n      and\n        /* \"#utility.yul\":1060:1098   */\n      swap1\n      pop\n        /* \"#utility.yul\":1002:1104   */\n      swap2\n      swap1\n      pop\n      jump\t// out\n        /* \"#utility.yul\":1110:1290   */\n    tag_68:\n        /* \"#utility.yul\":1158:1235   */\n      0x4e487b7100000000000000000000000000000000000000000000000000000000\n        /* \"#utility.yul\":1155:1156   */\n      0x00\n        /* \"#utility.yul\":1148:1236   */\n      mstore\n        /* \"#utility.yul\":1255:1259   */\n      0x41\n        /* \"#utility.yul\":1252:1253   */\n      0x04\n        /* \"#utility.yul\":1245:1260   */\n      mstore\n        /* \"#utility.yul\":1279:1283   */\n      0x24\n        /* \"#utility.yul\":1276:1277   */\n      0x00\n        /* \"#utility.yul\":1269:1284   */\n      revert\n        /* \"#utility.yul\":1296:1577   */\n    tag_164:\n        /* \"#utility.yul\":1379:1406   */\n      tag_188\n        /* \"#utility.yul\":1401:1405   */\n      dup3\n        /* \"#utility.yul\":1379:1406   */\n      tag_163\n      jump\t// in\n    tag_188:\n        /* \"#utility.yul\":1371:1377   */\n      dup2\n        /* \"#utility.yul\":1367:1407   */\n      add\n        /* \"#utility.yul\":1509:1515   */\n      dup2\n        /* \"#utility.yul\":1497:1507   */\n      dup2\n        /* \"#utility.yul\":1494:1516   */\n      lt\n        /* \"#utility.yul\":1473:1491   */\n      0xffffffffffffffff\n        /* \"#utility.yul\":1461:1471   */\n      dup3\n        /* \"#utility.yul\":1458:1492   */\n      gt\n        /* \"#utility.yul\":1455:1517   */\n      or\n        /* \"#utility.yul\":1452:1540   */\n      iszero\n      tag_189\n      jumpi\n        /* \"#utility.yul\":1520:1538   */\n      tag_190\n      tag_68\n      jump\t// in\n    tag_190:\n        /* \"#utility.yul\":1452:1540   */\n    tag_189:\n        /* \"#utility.yul\":1560:1570   */\n      dup1\n        /* \"#utility.yul\":1556:1558   */\n      0x40\n        /* \"#utility.yul\":1549:1571   */\n      mstore\n        /* \"#utility.yul\":1339:1577   */\n      pop\n        /* \"#utility.yul\":1296:1577   */\n      pop\n      pop\n      jump\t// out\n        /* \"#utility.yul\":1583:1712   */\n    tag_165:\n        /* \"#utility.yul\":1617:1623   */\n      0x00\n        /* \"#utility.yul\":1644:1664   */\n      tag_192\n      tag_159\n      jump\t// in\n    tag_192:\n        /* \"#utility.yul\":1634:1664   */\n      swap1\n      pop\n        /* \"#utility.yul\":1673:1706   */\n      tag_193\n        /* \"#utility.yul\":1701:1705   */\n      dup3\n        /* \"#utility.yul\":1693:1699   */\n      dup3\n        /* \"#utility.yul\":1673:1706   */\n      tag_164\n      jump\t// in\n    tag_193:\n        /* \"#utility.yul\":1583:1712   */\n      swap2\n      swap1\n      pop\n      jump\t// out\n        /* \"#utility.yul\":1718:2029   */\n    tag_166:\n        /* \"#utility.yul\":1795:1799   */\n      0x00\n        /* \"#utility.yul\":1885:1903   */\n      0xffffffffffffffff\n        /* \"#utility.yul\":1877:1883   */\n      dup3\n        /* \"#utility.yul\":1874:1904   */\n      gt\n        /* \"#utility.yul\":1871:1927   */\n      iszero\n      tag_195\n      jumpi\n        /* \"#utility.yul\":1907:1925   */\n      tag_196\n      tag_68\n      jump\t// in\n    tag_196:\n        /* \"#utility.yul\":1871:1927   */\n    tag_195:\n        /* \"#utility.yul\":1957:1961   */\n      0x20\n        /* \"#utility.yul\":1949:1955   */\n      dup3\n        /* \"#utility.yul\":1945:1962   */\n      mul\n        /* \"#utility.yul\":1937:1962   */\n      swap1\n      pop\n        /* \"#utility.yul\":2017:2021   */\n      0x20\n        /* \"#utility.yul\":2011:2015   */\n      dup2\n        /* \"#utility.yul\":2007:2022   */\n      add\n        /* \"#utility.yul\":1999:2022   */\n      swap1\n      pop\n        /* \"#utility.yul\":1718:2029   */\n      swap2\n      swap1\n      pop\n      jump\t// out\n        /* \"#utility.yul\":2035:2152   */\n    tag_167:\n        /* \"#utility.yul\":2144:2145   */\n      0x00\n        /* \"#utility.yul\":2141:2142   */\n      dup1\n        /* \"#utility.yul\":2134:2146   */\n      revert\n        /* \"#utility.yul\":2158:2280   */\n    tag_168:\n        /* \"#utility.yul\":2231:2255   */\n      tag_199\n        /* \"#utility.yul\":2249:2254   */\n      dup2\n        /* \"#utility.yul\":2231:2255   */\n      tag_157\n      jump\t// in\n    tag_199:\n        /* \"#utility.yul\":2224:2229   */\n      dup2\n        /* \"#utility.yul\":2221:2256   */\n      eq\n        /* \"#utility.yul\":2211:2274   */\n      tag_200\n      jumpi\n        /* \"#utility.yul\":2270:2271   */\n      0x00\n        /* \"#utility.yul\":2267:2268   */\n      dup1\n        /* \"#utility.yul\":2260:2272   */\n      revert\n        /* \"#utility.yul\":2211:2274   */\n    tag_200:\n        /* \"#utility.yul\":2158:2280   */\n      pop\n      jump\t// out\n        /* \"#utility.yul\":2286:2425   */\n    tag_169:\n        /* \"#utility.yul\":2332:2337   */\n      0x00\n        /* \"#utility.yul\":2370:2376   */\n      dup2\n        /* \"#utility.yul\":2357:2377   */\n      calldataload\n        /* \"#utility.yul\":2348:2377   */\n      swap1\n      pop\n        /* \"#utility.yul\":2386:2419   */\n      tag_202\n        /* \"#utility.yul\":2413:2418   */\n      dup2\n        /* \"#utility.yul\":2386:2419   */\n      tag_168\n      jump\t// in\n    tag_202:\n        /* \"#utility.yul\":2286:2425   */\n      swap3\n      swap2\n      pop\n      pop\n      jump\t// out\n        /* \"#utility.yul\":2448:3158   */\n    tag_170:\n        /* \"#utility.yul\":2544:2549   */\n      0x00\n        /* \"#utility.yul\":2569:2650   */\n      tag_204\n        /* \"#utility.yul\":2585:2649   */\n      tag_205\n        /* \"#utility.yul\":2642:2648   */\n      dup5\n        /* \"#utility.yul\":2585:2649   */\n      tag_166\n      jump\t// in\n    tag_205:\n        /* \"#utility.yul\":2569:2650   */\n      tag_165\n      jump\t// in\n    tag_204:\n        /* \"#utility.yul\":2560:2650   */\n      swap1\n      pop\n        /* \"#utility.yul\":2670:2675   */\n      dup1\n        /* \"#utility.yul\":2699:2705   */\n      dup4\n        /* \"#utility.yul\":2692:2697   */\n      dup3\n        /* \"#utility.yul\":2685:2706   */\n      mstore\n        /* \"#utility.yul\":2733:2737   */\n      0x20\n        /* \"#utility.yul\":2726:2731   */\n      dup3\n        /* \"#utility.yul\":2722:2738   */\n      add\n        /* \"#utility.yul\":2715:2738   */\n      swap1\n      pop\n        /* \"#utility.yul\":2786:2790   */\n      0x20\n        /* \"#utility.yul\":2778:2784   */\n      dup5\n        /* \"#utility.yul\":2774:2791   */\n      mul\n        /* \"#utility.yul\":2766:2772   */\n      dup4\n        /* \"#utility.yul\":2762:2792   */\n      add\n        /* \"#utility.yul\":2815:2818   */\n      dup6\n        /* \"#utility.yul\":2807:2813   */\n      dup2\n        /* \"#utility.yul\":2804:2819   */\n      gt\n        /* \"#utility.yul\":2801:2923   */\n      iszero\n      tag_206\n      jumpi\n        /* \"#utility.yul\":2834:2913   */\n      tag_207\n      tag_167\n      jump\t// in\n    tag_207:\n        /* \"#utility.yul\":2801:2923   */\n    tag_206:\n        /* \"#utility.yul\":2949:2955   */\n      dup4\n        /* \"#utility.yul\":2932:3152   */\n    tag_208:\n        /* \"#utility.yul\":2966:2972   */\n      dup2\n        /* \"#utility.yul\":2961:2964   */\n      dup2\n        /* \"#utility.yul\":2958:2973   */\n      lt\n        /* \"#utility.yul\":2932:3152   */\n      iszero\n      tag_210\n      jumpi\n        /* \"#utility.yul\":3041:3044   */\n      dup1\n        /* \"#utility.yul\":3070:3107   */\n      tag_211\n        /* \"#utility.yul\":3103:3106   */\n      dup9\n        /* \"#utility.yul\":3091:3101   */\n      dup3\n        /* \"#utility.yul\":3070:3107   */\n      tag_169\n      jump\t// in\n    tag_211:\n        /* \"#utility.yul\":3065:3068   */\n      dup5\n        /* \"#utility.yul\":3058:3108   */\n      mstore\n        /* \"#utility.yul\":3137:3141   */\n      0x20\n        /* \"#utility.yul\":3132:3135   */\n      dup5\n        /* \"#utility.yul\":3128:3142   */\n      add\n        /* \"#utility.yul\":3121:3142   */\n      swap4\n      pop\n        /* \"#utility.yul\":3008:3152   */\n      pop\n        /* \"#utility.yul\":2992:2996   */\n      0x20\n        /* \"#utility.yul\":2987:2990   */\n      dup2\n        /* \"#utility.yul\":2983:2997   */\n      add\n        /* \"#utility.yul\":2976:2997   */\n      swap1\n      pop\n        /* \"#utility.yul\":2932:3152   */\n      jump(tag_208)\n    tag_210:\n        /* \"#utility.yul\":2936:2957   */\n      pop\n        /* \"#utility.yul\":2550:3158   */\n      pop\n      pop\n        /* \"#utility.yul\":2448:3158   */\n      swap4\n      swap3\n      pop\n      pop\n      pop\n      jump\t// out\n        /* \"#utility.yul\":3181:3551   */\n    tag_171:\n        /* \"#utility.yul\":3252:3257   */\n      0x00\n        /* \"#utility.yul\":3301:3304   */\n      dup3\n        /* \"#utility.yul\":3294:3298   */\n      0x1f\n        /* \"#utility.yul\":3286:3292   */\n      dup4\n        /* \"#utility.yul\":3282:3299   */\n      add\n        /* \"#utility.yul\":3278:3305   */\n      slt\n        /* \"#utility.yul\":3268:3390   */\n      tag_213\n      jumpi\n        /* \"#utility.yul\":3309:3388   */\n      tag_214\n      tag_162\n      jump\t// in\n    tag_214:\n        /* \"#utility.yul\":3268:3390   */\n    tag_213:\n        /* \"#utility.yul\":3426:3432   */\n      dup2\n        /* \"#utility.yul\":3413:3433   */\n      calldataload\n        /* \"#utility.yul\":3451:3545   */\n      tag_215\n        /* \"#utility.yul\":3541:3544   */\n      dup5\n        /* \"#utility.yul\":3533:3539   */\n      dup3\n        /* \"#utility.yul\":3526:3530   */\n      0x20\n        /* \"#utility.yul\":3518:3524   */\n      dup7\n        /* \"#utility.yul\":3514:3531   */\n      add\n        /* \"#utility.yul\":3451:3545   */\n      tag_170\n      jump\t// in\n    tag_215:\n        /* \"#utility.yul\":3442:3545   */\n      swap2\n      pop\n        /* \"#utility.yul\":3258:3551   */\n      pop\n        /* \"#utility.yul\":3181:3551   */\n      swap3\n      swap2\n      pop\n      pop\n      jump\t// out\n        /* \"#utility.yul\":3557:4096   */\n    tag_22:\n        /* \"#utility.yul\":3641:3647   */\n      0x00\n        /* \"#utility.yul\":3690:3692   */\n      0x20\n        /* \"#utility.yul\":3678:3687   */\n      dup3\n        /* \"#utility.yul\":3669:3676   */\n      dup5\n        /* \"#utility.yul\":3665:3688   */\n      sub\n        /* \"#utility.yul\":3661:3693   */\n      slt\n        /* \"#utility.yul\":3658:3777   */\n      iszero\n      tag_217\n      jumpi\n        /* \"#utility.yul\":3696:3775   */\n      tag_218\n      tag_160\n      jump\t// in\n    tag_218:\n        /* \"#utility.yul\":3658:3777   */\n    tag_217:\n        /* \"#utility.yul\":3844:3845   */\n      0x00\n        /* \"#utility.yul\":3833:3842   */\n      dup3\n        /* \"#utility.yul\":3829:3846   */\n      add\n        /* \"#utility.yul\":3816:3847   */\n      calldataload\n        /* \"#utility.yul\":3874:3892   */\n      0xffffffffffffffff\n        /* \"#utility.yul\":3866:3872   */\n      dup2\n        /* \"#utility.yul\":3863:3893   */\n      gt\n        /* \"#utility.yul\":3860:3977   */\n      iszero\n      tag_219\n      jumpi\n        /* \"#utility.yul\":3896:3975   */\n      tag_220\n      tag_161\n      jump\t// in\n    tag_220:\n        /* \"#utility.yul\":3860:3977   */\n    tag_219:\n        /* \"#utility.yul\":4001:4079   */\n      tag_221\n        /* \"#utility.yul\":4071:4078   */\n      dup5\n        /* \"#utility.yul\":4062:4068   */\n      dup3\n        /* \"#utility.yul\":4051:4060   */\n      dup6\n        /* \"#utility.yul\":4047:4069   */\n      add\n        /* \"#utility.yul\":4001:4079   */\n      tag_171\n      jump\t// in\n    tag_221:\n        /* \"#utility.yul\":3991:4079   */\n      swap2\n      pop\n        /* \"#utility.yul\":3787:4089   */\n      pop\n        /* \"#utility.yul\":3557:4096   */\n      swap3\n      swap2\n      pop\n      pop\n      jump\t// out\n        /* \"#utility.yul\":4102:4431   */\n    tag_27:\n        /* \"#utility.yul\":4161:4167   */\n      0x00\n        /* \"#utility.yul\":4210:4212   */\n      0x20\n        /* \"#utility.yul\":4198:4207   */\n      dup3\n        /* \"#utility.yul\":4189:4196   */\n      dup5\n        /* \"#utility.yul\":4185:4208   */\n      sub\n        /* \"#utility.yul\":4181:4213   */\n      slt\n        /* \"#utility.yul\":4178:4297   */\n      iszero\n      tag_223\n      jumpi\n        /* \"#utility.yul\":4216:4295   */\n      tag_224\n      tag_160\n      jump\t// in\n    tag_224:\n        /* \"#utility.yul\":4178:4297   */\n    tag_223:\n        /* \"#utility.yul\":4336:4337   */\n      0x00\n        /* \"#utility.yul\":4361:4414   */\n      tag_225\n        /* \"#utility.yul\":4406:4413   */\n      dup5\n        /* \"#utility.yul\":4397:4403   */\n      dup3\n        /* \"#utility.yul\":4386:4395   */\n      dup6\n        /* \"#utility.yul\":4382:4404   */\n      add\n        /* \"#utility.yul\":4361:4414   */\n      tag_169\n      jump\t// in\n    tag_225:\n        /* \"#utility.yul\":4351:4414   */\n      swap2\n      pop\n        /* \"#utility.yul\":4307:4424   */\n      pop\n        /* \"#utility.yul\":4102:4431   */\n      swap3\n      swap2\n      pop\n      pop\n      jump\t// out\n        /* \"#utility.yul\":4437:4659   */\n    tag_30:\n        /* \"#utility.yul\":4530:4534   */\n      0x00\n        /* \"#utility.yul\":4568:4570   */\n      0x20\n        /* \"#utility.yul\":4557:4566   */\n      dup3\n        /* \"#utility.yul\":4553:4571   */\n      add\n        /* \"#utility.yul\":4545:4571   */\n      swap1\n      pop\n        /* \"#utility.yul\":4581:4652   */\n      tag_227\n        /* \"#utility.yul\":4649:4650   */\n      0x00\n        /* \"#utility.yul\":4638:4647   */\n      dup4\n        /* \"#utility.yul\":4634:4651   */\n      add\n        /* \"#utility.yul\":4625:4631   */\n      dup5\n        /* \"#utility.yul\":4581:4652   */\n      tag_158\n      jump\t// in\n    tag_227:\n        /* \"#utility.yul\":4437:4659   */\n      swap3\n      swap2\n      pop\n      pop\n      jump\t// out\n        /* \"#utility.yul\":4665:4782   */\n    tag_172:\n        /* \"#utility.yul\":4774:4775   */\n      0x00\n        /* \"#utility.yul\":4771:4772   */\n      dup1\n        /* \"#utility.yul\":4764:4776   */\n      revert\n        /* \"#utility.yul\":4805:5373   */\n    tag_173:\n        /* \"#utility.yul\":4878:4886   */\n      0x00\n        /* \"#utility.yul\":4888:4894   */\n      dup1\n        /* \"#utility.yul\":4938:4941   */\n      dup4\n        /* \"#utility.yul\":4931:4935   */\n      0x1f\n        /* \"#utility.yul\":4923:4929   */\n      dup5\n        /* \"#utility.yul\":4919:4936   */\n      add\n        /* \"#utility.yul\":4915:4942   */\n      slt\n        /* \"#utility.yul\":4905:5027   */\n      tag_230\n      jumpi\n        /* \"#utility.yul\":4946:5025   */\n      tag_231\n      tag_162\n      jump\t// in\n    tag_231:\n        /* \"#utility.yul\":4905:5027   */\n    tag_230:\n        /* \"#utility.yul\":5059:5065   */\n      dup3\n        /* \"#utility.yul\":5046:5066   */\n      calldataload\n        /* \"#utility.yul\":5036:5066   */\n      swap1\n      pop\n        /* \"#utility.yul\":5089:5107   */\n      0xffffffffffffffff\n        /* \"#utility.yul\":5081:5087   */\n      dup2\n        /* \"#utility.yul\":5078:5108   */\n      gt\n        /* \"#utility.yul\":5075:5192   */\n      iszero\n      tag_232\n      jumpi\n        /* \"#utility.yul\":5111:5190   */\n      tag_233\n      tag_172\n      jump\t// in\n    tag_233:\n        /* \"#utility.yul\":5075:5192   */\n    tag_232:\n        /* \"#utility.yul\":5225:5229   */\n      0x20\n        /* \"#utility.yul\":5217:5223   */\n      dup4\n        /* \"#utility.yul\":5213:5230   */\n      add\n        /* \"#utility.yul\":5201:5230   */\n      swap2\n      pop\n        /* \"#utility.yul\":5279:5282   */\n      dup4\n        /* \"#utility.yul\":5271:5275   */\n      0x20\n        /* \"#utility.yul\":5263:5269   */\n      dup3\n        /* \"#utility.yul\":5259:5276   */\n      mul\n        /* \"#utility.yul\":5249:5257   */\n      dup4\n        /* \"#utility.yul\":5245:5277   */\n      add\n        /* \"#utility.yul\":5242:5283   */\n      gt\n        /* \"#utility.yul\":5239:5367   */\n      iszero\n      tag_234\n      jumpi\n        /* \"#utility.yul\":5286:5365   */\n      tag_235\n      tag_167\n      jump\t// in\n    tag_235:\n        /* \"#utility.yul\":5239:5367   */\n    tag_234:\n        /* \"#utility.yul\":4805:5373   */\n      swap3\n      pop\n      swap3\n      swap1\n      pop\n      jump\t// out\n        /* \"#utility.yul\":5379:5938   */\n    tag_51:\n        /* \"#utility.yul\":5465:5471   */\n      0x00\n        /* \"#utility.yul\":5473:5479   */\n      dup1\n        /* \"#utility.yul\":5522:5524   */\n      0x20\n        /* \"#utility.yul\":5510:5519   */\n      dup4\n        /* \"#utility.yul\":5501:5508   */\n      dup6\n        /* \"#utility.yul\":5497:5520   */\n      sub\n        /* \"#utility.yul\":5493:5525   */\n      slt\n        /* \"#utility.yul\":5490:5609   */\n      iszero\n      tag_237\n      jumpi\n        /* \"#utility.yul\":5528:5607   */\n      tag_238\n      tag_160\n      jump\t// in\n    tag_238:\n        /* \"#utility.yul\":5490:5609   */\n    tag_237:\n        /* \"#utility.yul\":5676:5677   */\n      0x00\n        /* \"#utility.yul\":5665:5674   */\n      dup4\n        /* \"#utility.yul\":5661:5678   */\n      add\n        /* \"#utility.yul\":5648:5679   */\n      calldataload\n        /* \"#utility.yul\":5706:5724   */\n      0xffffffffffffffff\n        /* \"#utility.yul\":5698:5704   */\n      dup2\n        /* \"#utility.yul\":5695:5725   */\n      gt\n        /* \"#utility.yul\":5692:5809   */\n      iszero\n      tag_239\n      jumpi\n        /* \"#utility.yul\":5728:5807   */\n      tag_240\n      tag_161\n      jump\t// in\n    tag_240:\n        /* \"#utility.yul\":5692:5809   */\n    tag_239:\n        /* \"#utility.yul\":5841:5921   */\n      tag_241\n        /* \"#utility.yul\":5913:5920   */\n      dup6\n        /* \"#utility.yul\":5904:5910   */\n      dup3\n        /* \"#utility.yul\":5893:5902   */\n      dup7\n        /* \"#utility.yul\":5889:5911   */\n      add\n        /* \"#utility.yul\":5841:5921   */\n      tag_173\n      jump\t// in\n    tag_241:\n        /* \"#utility.yul\":5823:5921   */\n      swap3\n      pop\n      swap3\n      pop\n        /* \"#utility.yul\":5619:5931   */\n      pop\n        /* \"#utility.yul\":5379:5938   */\n      swap3\n      pop\n      swap3\n      swap1\n      pop\n      jump\t// out\n        /* \"#utility.yul\":5944:6124   */\n    tag_75:\n        /* \"#utility.yul\":5992:6069   */\n      0x4e487b7100000000000000000000000000000000000000000000000000000000\n        /* \"#utility.yul\":5989:5990   */\n      0x00\n        /* \"#utility.yul\":5982:6070   */\n      mstore\n        /* \"#utility.yul\":6089:6093   */\n      0x32\n        /* \"#utility.yul\":6086:6087   */\n      0x04\n        /* \"#utility.yul\":6079:6094   */\n      mstore\n        /* \"#utility.yul\":6113:6117   */\n      0x24\n        /* \"#utility.yul\":6110:6111   */\n      0x00\n        /* \"#utility.yul\":6103:6118   */\n      revert\n\n    auxdata: 0xa2646970667358221220489857e8fe2720d5a4a140e8fed382f46ba3e384a9977aebd86d6007a1a4944164736f6c634300081a0033\n}\n",
				"bytecode": {
					"linkReferences": {},
					"object": "6080604052600367ffffffffffffffff81111561001f5761001e61028f565b5b60405190808252806020026020018201604052801561004d5781602001602082028036833780820191505090505b505f90805190602001906100629291906101d9565b50600367ffffffffffffffff81111561007e5761007d61028f565b5b6040519080825280602002602001820160405280156100ac5781602001602082028036833780820191505090505b50600190805190602001906100c29291906101d9565b506040518060600160405280600460ff168152602001600560ff168152602001600660ff1681525060039060036100fa929190610224565b50348015610106575f80fd5b5060405161106038038061106083398181016040528101906101289190610423565b6040518060600160405280600160ff168152602001600260ff168152602001600360ff16815250600490600361015f929190610224565b5060048054806020026020016040519081016040528092919081815260200182805480156101aa57602002820191905f5260205f20905b815481526020019060010190808311610196575b50505050509050600660045f815481106101c7576101c661046a565b5b905f5260205f20018190555050610497565b828054828255905f5260205f20908101928215610213579160200282015b828111156102125782518255916020019190600101906101f7565b5b5090506102209190610274565b5090565b828054828255905f5260205f20908101928215610263579160200282015b82811115610262578251829060ff16905591602001919060010190610242565b5b5090506102709190610274565b5090565b5b8082111561028b575f815f905550600101610275565b5090565b7f4e487b71000000000000000000000000000000000000000000000000000000005f52604160045260245ffd5b5f604051905090565b5f80fd5b5f80fd5b5f80fd5b5f601f19601f8301169050919050565b6102ea826102d1565b810181811067ffffffffffffffff821117156103095761030861028f565b5b80604052505050565b5f61031b6102bc565b905061032782826102e1565b919050565b5f67ffffffffffffffff8211156103465761034561028f565b5b602082029050602081019050919050565b5f80fd5b5f819050919050565b61036d8161035b565b8114610377575f80fd5b50565b5f8151905061038881610364565b92915050565b5f6103a061039b8461032c565b610312565b905080838252602082019050602084028301858111156103c3576103c2610357565b5b835b818110156103ec57806103d8888261037a565b8452602084019350506020810190506103c5565b5050509392505050565b5f82601f83011261040a576104096102cd565b5b815161041a84826020860161038e565b91505092915050565b5f60208284031215610438576104376102c5565b5b5f82015167ffffffffffffffff811115610455576104546102c9565b5b610461848285016103f6565b91505092915050565b7f4e487b71000000000000000000000000000000000000000000000000000000005f52603260045260245ffd5b610bbc806104a45f395ff3fe608060405234801561000f575f80fd5b50600436106100b2575f3560e01c806371e5ee5f1161006f57806371e5ee5f146101a45780638732ded8146101d457806392a789f914610204578063b61f14a514610235578063d087d67a14610265578063d3b087ba14610284576100b2565b80630a8e8e01146100b657806326b0ba1d146100d5578063457f05701461010657806366e41cb7146101365780636987b1fb146101555780636b59084d14610185575b5f80fd5b6100be6102b4565b6040516100cc929190610878565b60405180910390f35b6100ef60048036038101906100ea9190610a2a565b6103d5565b6040516100fd929190610878565b60405180910390f35b610120600480360381019061011b9190610a71565b610488565b60405161012d9190610a9c565b60405180910390f35b61013e6104a8565b60405161014c929190610878565b60405180910390f35b61016f600480360381019061016a9190610a71565b610521565b60405161017c9190610a9c565b60405180910390f35b61018d610541565b60405161019b929190610878565b60405180910390f35b6101be60048036038101906101b99190610a71565b6105f0565b6040516101cb9190610a9c565b60405180910390f35b6101ee60048036038101906101e99190610a71565b61060f565b6040516101fb9190610a9c565b60405180910390f35b61021e60048036038101906102199190610b0e565b61062f565b60405161022c929190610878565b60405180910390f35b61024f600480360381019061024a9190610a71565b610723565b60405161025c9190610a9c565b60405180910390f35b61026d610743565b60405161027b929190610878565b60405180910390f35b61029e60048036038101906102999190610a71565b610787565b6040516102ab9190610a9c565b60405180910390f35b5f805f600367ffffffffffffffff8111156102d2576102d16108c4565b5b6040519080825280602002602001820160405280156103005781602001602082028036833780820191505090505b5090505f600367ffffffffffffffff81111561031f5761031e6108c4565b5b60405190808252806020026020018201604052801561034d5781602001602082028036833780820191505090505b5090506006815f8151811061036557610364610b59565b5b6020026020010181815250508091506001825f8151811061038957610388610b59565b5b602002602001018181525050815f815181106103a8576103a7610b59565b5b6020026020010151815f815181106103c3576103c2610b59565b5b60200260200101519350935050509091565b5f805f600367ffffffffffffffff8111156103f3576103f26108c4565b5b6040519080825280602002602001820160405280156104215781602001602082028036833780820191505090505b5090508093506006815f8151811061043c5761043b610b59565b5b602002602001018181525050835f8151811061045b5761045a610b59565b5b6020026020010151815f8151811061047657610475610b59565b5b60200260200101519250925050915091565b60048181548110610497575f80fd5b905f5260205f20015f915090505481565b5f80600360029080546104bc9291906107a7565b50600660035f815481106104d3576104d2610b59565b5b905f5260205f20018190555060025f815481106104f3576104f2610b59565b5b905f5260205f20015460035f815481106105105761050f610b59565b5b905f5260205f200154915091509091565b60018181548110610530575f80fd5b905f5260205f20015f915090505481565b5f806040518060600160405280600160ff168152602001600260ff168152602001600360ff16815250600190600361057a9291906107f5565b5060015f90805461058c9291906107a7565b50600660015f815481106105a3576105a2610b59565b5b905f5260205f2001819055505f80815481106105c2576105c1610b59565b5b905f5260205f20015460015f815481106105df576105de610b59565b5b905f5260205f200154915091509091565b5f81815481106105fe575f80fd5b905f5260205f20015f915090505481565b6002818154811061061e575f80fd5b905f5260205f20015f915090505481565b5f805f600367ffffffffffffffff81111561064d5761064c6108c4565b5b60405190808252806020026020018201604052801561067b5781602001602082028036833780820191505090505b5090508484808060200260200160405190810160405280939291908181526020018383602002808284375f81840152601f19601f8201169050808301925050505050505090506006815f815181106106d6576106d5610b59565b5b60200260200101818152505084845f8181106106f5576106f4610b59565b5b90506020020135815f8151811061070f5761070e610b59565b5b602002602001015192509250509250929050565b60038181548110610732575f80fd5b905f5260205f20015f915090505481565b5f8060045f8154811061075957610758610b59565b5b905f5260205f20015460055f8154811061077657610775610b59565b5b905f5260205f200154915091509091565b60058181548110610796575f80fd5b905f5260205f20015f915090505481565b828054828255905f5260205f209081019282156107e4575f5260205f209182015b828111156107e35782548255916001019190600101906107c8565b5b5090506107f19190610845565b5090565b828054828255905f5260205f20908101928215610834579160200282015b82811115610833578251829060ff16905591602001919060010190610813565b5b5090506108419190610845565b5090565b5b8082111561085c575f815f905550600101610846565b5090565b5f819050919050565b61087281610860565b82525050565b5f60408201905061088b5f830185610869565b6108986020830184610869565b9392505050565b5f604051905090565b5f80fd5b5f80fd5b5f80fd5b5f601f19601f8301169050919050565b7f4e487b71000000000000000000000000000000000000000000000000000000005f52604160045260245ffd5b6108fa826108b4565b810181811067ffffffffffffffff82111715610919576109186108c4565b5b80604052505050565b5f61092b61089f565b905061093782826108f1565b919050565b5f67ffffffffffffffff821115610956576109556108c4565b5b602082029050602081019050919050565b5f80fd5b61097481610860565b811461097e575f80fd5b50565b5f8135905061098f8161096b565b92915050565b5f6109a76109a28461093c565b610922565b905080838252602082019050602084028301858111156109ca576109c9610967565b5b835b818110156109f357806109df8882610981565b8452602084019350506020810190506109cc565b5050509392505050565b5f82601f830112610a1157610a106108b0565b5b8135610a21848260208601610995565b91505092915050565b5f60208284031215610a3f57610a3e6108a8565b5b5f82013567ffffffffffffffff811115610a5c57610a5b6108ac565b5b610a68848285016109fd565b91505092915050565b5f60208284031215610a8657610a856108a8565b5b5f610a9384828501610981565b91505092915050565b5f602082019050610aaf5f830184610869565b92915050565b5f80fd5b5f8083601f840112610ace57610acd6108b0565b5b8235905067ffffffffffffffff811115610aeb57610aea610ab5565b5b602083019150836020820283011115610b0757610b06610967565b5b9250929050565b5f8060208385031215610b2457610b236108a8565b5b5f83013567ffffffffffffffff811115610b4157610b406108ac565b5b610b4d85828601610ab9565b92509250509250929050565b7f4e487b71000000000000000000000000000000000000000000000000000000005f52603260045260245ffdfea2646970667358221220489857e8fe2720d5a4a140e8fed382f46ba3e384a9977aebd86d6007a1a4944164736f6c634300081a0033",
					"opcodes": "PUSH1 0x80 PUSH1 0x40 MSTORE PUSH1 0x3 PUSH8 0xFFFFFFFFFFFFFFFF DUP2 GT ISZERO PUSH2 0x1F JUMPI PUSH2 0x1E PUSH2 0x28F JUMP JUMPDEST JUMPDEST PUSH1 0x40 MLOAD SWAP1 DUP1 DUP3 MSTORE DUP1 PUSH1 0x20 MUL PUSH1 0x20 ADD DUP3 ADD PUSH1 0x40 MSTORE DUP1 ISZERO PUSH2 0x4D JUMPI DUP2 PUSH1 0x20 ADD PUSH1 0x20 DUP3 MUL DUP1 CALLDATASIZE DUP4 CALLDATACOPY DUP1 DUP3 ADD SWAP2 POP POP SWAP1 POP JUMPDEST POP PUSH0 SWAP1 DUP1 MLOAD SWAP1 PUSH1 0x20 ADD SWAP1 PUSH2 0x62 SWAP3 SWAP2 SWAP1 PUSH2 0x1D9 JUMP JUMPDEST POP PUSH1 0x3 PUSH8 0xFFFFFFFFFFFFFFFF DUP2 GT ISZERO PUSH2 0x7E JUMPI PUSH2 0x7D PUSH2 0x28F JUMP JUMPDEST JUMPDEST PUSH1 0x40 MLOAD SWAP1 DUP1 DUP3 MSTORE DUP1 PUSH1 0x20 MUL PUSH1 0x20 ADD DUP3 ADD PUSH1 0x40 MSTORE DUP1 ISZERO PUSH2 0xAC JUMPI DUP2 PUSH1 0x20 ADD PUSH1 0x20 DUP3 MUL DUP1 CALLDATASIZE DUP4 CALLDATACOPY DUP1 DUP3 ADD SWAP2 POP POP SWAP1 POP JUMPDEST POP PUSH1 0x1 SWAP1 DUP1 MLOAD SWAP1 PUSH1 0x20 ADD SWAP1 PUSH2 0xC2 SWAP3 SWAP2 SWAP1 PUSH2 0x1D9 JUMP JUMPDEST POP PUSH1 0x40 MLOAD DUP1 PUSH1 0x60 ADD PUSH1 0x40 MSTORE DUP1 PUSH1 0x4 PUSH1 0xFF AND DUP2 MSTORE PUSH1 0x20 ADD PUSH1 0x5 PUSH1 0xFF AND DUP2 MSTORE PUSH1 0x20 ADD PUSH1 0x6 PUSH1 0xFF AND DUP2 MSTORE POP PUSH1 0x3 SWAP1 PUSH1 0x3 PUSH2 0xFA SWAP3 SWAP2 SWAP1 PUSH2 0x224 JUMP JUMPDEST POP CALLVALUE DUP1 ISZERO PUSH2 0x106 JUMPI PUSH0 DUP1 REVERT JUMPDEST POP PUSH1 0x40 MLOAD PUSH2 0x1060 CODESIZE SUB DUP1 PUSH2 0x1060 DUP4 CODECOPY DUP2 DUP2 ADD PUSH1 0x40 MSTORE DUP2 ADD SWAP1 PUSH2 0x128 SWAP2 SWAP1 PUSH2 0x423 JUMP JUMPDEST PUSH1 0x40 MLOAD DUP1 PUSH1 0x60 ADD PUSH1 0x40 MSTORE DUP1 PUSH1 0x1 PUSH1 0xFF AND DUP2 MSTORE PUSH1 0x20 ADD PUSH1 0x2 PUSH1 0xFF AND DUP2 MSTORE PUSH1 0x20 ADD PUSH1 0x3 PUSH1 0xFF AND DUP2 MSTORE POP PUSH1 0x4 SWAP1 PUSH1 0x3 PUSH2 0x15F SWAP3 SWAP2 SWAP1 PUSH2 0x224 JUMP JUMPDEST POP PUSH1 0x4 DUP1 SLOAD DUP1 PUSH1 0x20 MUL PUSH1 0x20 ADD PUSH1 0x40 MLOAD SWAP1 DUP2 ADD PUSH1 0x40 MSTORE DUP1 SWAP3 SWAP2 SWAP1 DUP2 DUP2 MSTORE PUSH1 0x20 ADD DUP3 DUP1 SLOAD DUP1 ISZERO PUSH2 0x1AA JUMPI PUSH1 0x20 MUL DUP3 ADD SWAP2 SWAP1 PUSH0 MSTORE PUSH1 0x20 PUSH0 KECCAK256 SWAP1 JUMPDEST DUP2 SLOAD DUP2 MSTORE PUSH1 0x20 ADD SWAP1 PUSH1 0x1 ADD SWAP1 DUP1 DUP4 GT PUSH2 0x196 JUMPI JUMPDEST POP POP POP POP POP SWAP1 POP PUSH1 0x6 PUSH1 0x4 PUSH0 DUP2 SLOAD DUP2 LT PUSH2 0x1C7 JUMPI PUSH2 0x1C6 PUSH2 0x46A JUMP JUMPDEST JUMPDEST SWAP1 PUSH0 MSTORE PUSH1 0x20 PUSH0 KECCAK256 ADD DUP2 SWAP1 SSTORE POP POP PUSH2 0x497 JUMP JUMPDEST DUP3 DUP1 SLOAD DUP3 DUP3 SSTORE SWAP1 PUSH0 MSTORE PUSH1 0x20 PUSH0 KECCAK256 SWAP1 DUP2 ADD SWAP3 DUP3 ISZERO PUSH2 0x213 JUMPI SWAP2 PUSH1 0x20 MUL DUP3 ADD JUMPDEST DUP3 DUP2 GT ISZERO PUSH2 0x212 JUMPI DUP3 MLOAD DUP3 SSTORE SWAP2 PUSH1 0x20 ADD SWAP2 SWAP1 PUSH1 0x1 ADD SWAP1 PUSH2 0x1F7 JUMP JUMPDEST JUMPDEST POP SWAP1 POP PUSH2 0x220 SWAP2 SWAP1 PUSH2 0x274 JUMP JUMPDEST POP SWAP1 JUMP JUMPDEST DUP3 DUP1 SLOAD DUP3 DUP3 SSTORE SWAP1 PUSH0 MSTORE PUSH1 0x20 PUSH0 KECCAK256 SWAP1 DUP2 ADD SWAP3 DUP3 ISZERO PUSH2 0x263 JUMPI SWAP2 PUSH1 0x20 MUL DUP3 ADD JUMPDEST DUP3 DUP2 GT ISZERO PUSH2 0x262 JUMPI DUP3 MLOAD DUP3 SWAP1 PUSH1 0xFF AND SWAP1 SSTORE SWAP2 PUSH1 0x20 ADD SWAP2 SWAP1 PUSH1 0x1 ADD SWAP1 PUSH2 0x242 JUMP JUMPDEST JUMPDEST POP SWAP1 POP PUSH2 0x270 SWAP2 SWAP1 PUSH2 0x274 JUMP JUMPDEST POP SWAP1 JUMP JUMPDEST JUMPDEST DUP1 DUP3 GT ISZERO PUSH2 0x28B JUMPI PUSH0 DUP2 PUSH0 SWAP1 SSTORE POP PUSH1 0x1 ADD PUSH2 0x275 JUMP JUMPDEST POP SWAP1 JUMP JUMPDEST PUSH32 0x4E487B7100000000000000000000000000000000000000000000000000000000 PUSH0 MSTORE PUSH1 0x41 PUSH1 0x4 MSTORE PUSH1 0x24 PUSH0 REVERT JUMPDEST PUSH0 PUSH1 0x40 MLOAD SWAP1 POP SWAP1 JUMP JUMPDEST PUSH0 DUP1 REVERT JUMPDEST PUSH0 DUP1 REVERT JUMPDEST PUSH0 DUP1 REVERT JUMPDEST PUSH0 PUSH1 0x1F NOT PUSH1 0x1F DUP4 ADD AND SWAP1 POP SWAP2 SWAP1 POP JUMP JUMPDEST PUSH2 0x2EA DUP3 PUSH2 0x2D1 JUMP JUMPDEST DUP2 ADD DUP2 DUP2 LT PUSH8 0xFFFFFFFFFFFFFFFF DUP3 GT OR ISZERO PUSH2 0x309 JUMPI PUSH2 0x308 PUSH2 0x28F JUMP JUMPDEST JUMPDEST DUP1 PUSH1 0x40 MSTORE POP POP POP JUMP JUMPDEST PUSH0 PUSH2 0x31B PUSH2 0x2BC JUMP JUMPDEST SWAP1 POP PUSH2 0x327 DUP3 DUP3 PUSH2 0x2E1 JUMP JUMPDEST SWAP2 SWAP1 POP JUMP JUMPDEST PUSH0 PUSH8 0xFFFFFFFFFFFFFFFF DUP3 GT ISZERO PUSH2 0x346 JUMPI PUSH2 0x345 PUSH2 0x28F JUMP JUMPDEST JUMPDEST PUSH1 0x20 DUP3 MUL SWAP1 POP PUSH1 0x20 DUP2 ADD SWAP1 POP SWAP2 SWAP1 POP JUMP JUMPDEST PUSH0 DUP1 REVERT JUMPDEST PUSH0 DUP2 SWAP1 POP SWAP2 SWAP1 POP JUMP JUMPDEST PUSH2 0x36D DUP2 PUSH2 0x35B JUMP JUMPDEST DUP2 EQ PUSH2 0x377 JUMPI PUSH0 DUP1 REVERT JUMPDEST POP JUMP JUMPDEST PUSH0 DUP2 MLOAD SWAP1 POP PUSH2 0x388 DUP2 PUSH2 0x364 JUMP JUMPDEST SWAP3 SWAP2 POP POP JUMP JUMPDEST PUSH0 PUSH2 0x3A0 PUSH2 0x39B DUP5 PUSH2 0x32C JUMP JUMPDEST PUSH2 0x312 JUMP JUMPDEST SWAP1 POP DUP1 DUP4 DUP3 MSTORE PUSH1 0x20 DUP3 ADD SWAP1 POP PUSH1 0x20 DUP5 MUL DUP4 ADD DUP6 DUP2 GT ISZERO PUSH2 0x3C3 JUMPI PUSH2 0x3C2 PUSH2 0x357 JUMP JUMPDEST JUMPDEST DUP4 JUMPDEST DUP2 DUP2 LT ISZERO PUSH2 0x3EC JUMPI DUP1 PUSH2 0x3D8 DUP9 DUP3 PUSH2 0x37A JUMP JUMPDEST DUP5 MSTORE PUSH1 0x20 DUP5 ADD SWAP4 POP POP PUSH1 0x20 DUP2 ADD SWAP1 POP PUSH2 0x3C5 JUMP JUMPDEST POP POP POP SWAP4 SWAP3 POP POP POP JUMP JUMPDEST PUSH0 DUP3 PUSH1 0x1F DUP4 ADD SLT PUSH2 0x40A JUMPI PUSH2 0x409 PUSH2 0x2CD JUMP JUMPDEST JUMPDEST DUP2 MLOAD PUSH2 0x41A DUP5 DUP3 PUSH1 0x20 DUP7 ADD PUSH2 0x38E JUMP JUMPDEST SWAP2 POP POP SWAP3 SWAP2 POP POP JUMP JUMPDEST PUSH0 PUSH1 0x20 DUP3 DUP5 SUB SLT ISZERO PUSH2 0x438 JUMPI PUSH2 0x437 PUSH2 0x2C5 JUMP JUMPDEST JUMPDEST PUSH0 DUP3 ADD MLOAD PUSH8 0xFFFFFFFFFFFFFFFF DUP2 GT ISZERO PUSH2 0x455 JUMPI PUSH2 0x454 PUSH2 0x2C9 JUMP JUMPDEST JUMPDEST PUSH2 0x461 DUP5 DUP3 DUP6 ADD PUSH2 0x3F6 JUMP JUMPDEST SWAP2 POP POP SWAP3 SWAP2 POP POP JUMP JUMPDEST PUSH32 0x4E487B7100000000000000000000000000000000000000000000000000000000 PUSH0 MSTORE PUSH1 0x32 PUSH1 0x4 MSTORE PUSH1 0x24 PUSH0 REVERT JUMPDEST PUSH2 0xBBC DUP1 PUSH2 0x4A4 PUSH0 CODECOPY PUSH0 RETURN INVALID PUSH1 0x80 PUSH1 0x40 MSTORE CALLVALUE DUP1 ISZERO PUSH2 0xF JUMPI PUSH0 DUP1 REVERT JUMPDEST POP PUSH1 0x4 CALLDATASIZE LT PUSH2 0xB2 JUMPI PUSH0 CALLDATALOAD PUSH1 0xE0 SHR DUP1 PUSH4 0x71E5EE5F GT PUSH2 0x6F JUMPI DUP1 PUSH4 0x71E5EE5F EQ PUSH2 0x1A4 JUMPI DUP1 PUSH4 0x8732DED8 EQ PUSH2 0x1D4 JUMPI DUP1 PUSH4 0x92A789F9 EQ PUSH2 0x204 JUMPI DUP1 PUSH4 0xB61F14A5 EQ PUSH2 0x235 JUMPI DUP1 PUSH4 0xD087D67A EQ PUSH2 0x265 JUMPI DUP1 PUSH4 0xD3B087BA EQ PUSH2 0x284 JUMPI PUSH2 0xB2 JUMP JUMPDEST DUP1 PUSH4 0xA8E8E01 EQ PUSH2 0xB6 JUMPI DUP1 PUSH4 0x26B0BA1D EQ PUSH2 0xD5 JUMPI DUP1 PUSH4 0x457F0570 EQ PUSH2 0x106 JUMPI DUP1 PUSH4 0x66E41CB7 EQ PUSH2 0x136 JUMPI DUP1 PUSH4 0x6987B1FB EQ PUSH2 0x155 JUMPI DUP1 PUSH4 0x6B59084D EQ PUSH2 0x185 JUMPI JUMPDEST PUSH0 DUP1 REVERT JUMPDEST PUSH2 0xBE PUSH2 0x2B4 JUMP JUMPDEST PUSH1 0x40 MLOAD PUSH2 0xCC SWAP3 SWAP2 SWAP1 PUSH2 0x878 JUMP JUMPDEST PUSH1 0x40 MLOAD DUP1 SWAP2 SUB SWAP1 RETURN JUMPDEST PUSH2 0xEF PUSH1 0x4 DUP1 CALLDATASIZE SUB DUP2 ADD SWAP1 PUSH2 0xEA SWAP2 SWAP1 PUSH2 0xA2A JUMP JUMPDEST PUSH2 0x3D5 JUMP JUMPDEST PUSH1 0x40 MLOAD PUSH2 0xFD SWAP3 SWAP2 SWAP1 PUSH2 0x878 JUMP JUMPDEST PUSH1 0x40 MLOAD DUP1 SWAP2 SUB SWAP1 RETURN JUMPDEST PUSH2 0x120 PUSH1 0x4 DUP1 CALLDATASIZE SUB DUP2 ADD SWAP1 PUSH2 0x11B SWAP2 SWAP1 PUSH2 0xA71 JUMP JUMPDEST PUSH2 0x488 JUMP JUMPDEST PUSH1 0x40 MLOAD PUSH2 0x12D SWAP2 SWAP1 PUSH2 0xA9C JUMP JUMPDEST PUSH1 0x40 MLOAD DUP1 SWAP2 SUB SWAP1 RETURN JUMPDEST PUSH2 0x13E PUSH2 0x4A8 JUMP JUMPDEST PUSH1 0x40 MLOAD PUSH2 0x14C SWAP3 SWAP2 SWAP1 PUSH2 0x878 JUMP JUMPDEST PUSH1 0x40 MLOAD DUP1 SWAP2 SUB SWAP1 RETURN JUMPDEST PUSH2 0x16F PUSH1 0x4 DUP1 CALLDATASIZE SUB DUP2 ADD SWAP1 PUSH2 0x16A SWAP2 SWAP1 PUSH2 0xA71 JUMP JUMPDEST PUSH2 0x521 JUMP JUMPDEST PUSH1 0x40 MLOAD PUSH2 0x17C SWAP2 SWAP1 PUSH2 0xA9C JUMP JUMPDEST PUSH1 0x40 MLOAD DUP1 SWAP2 SUB SWAP1 RETURN JUMPDEST PUSH2 0x18D PUSH2 0x541 JUMP JUMPDEST PUSH1 0x40 MLOAD PUSH2 0x19B SWAP3 SWAP2 SWAP1 PUSH2 0x878 JUMP JUMPDEST PUSH1 0x40 MLOAD DUP1 SWAP2 SUB SWAP1 RETURN JUMPDEST PUSH2 0x1BE PUSH1 0x4 DUP1 CALLDATASIZE SUB DUP2 ADD SWAP1 PUSH2 0x1B9 SWAP2 SWAP1 PUSH2 0xA71 JUMP JUMPDEST PUSH2 0x5F0 JUMP JUMPDEST PUSH1 0x40 MLOAD PUSH2 0x1CB SWAP2 SWAP1 PUSH2 0xA9C JUMP JUMPDEST PUSH1 0x40 MLOAD DUP1 SWAP2 SUB SWAP1 RETURN JUMPDEST PUSH2 0x1EE PUSH1 0x4 DUP1 CALLDATASIZE SUB DUP2 ADD SWAP1 PUSH2 0x1E9 SWAP2 SWAP1 PUSH2 0xA71 JUMP JUMPDEST PUSH2 0x60F JUMP JUMPDEST PUSH1 0x40 MLOAD PUSH2 0x1FB SWAP2 SWAP1 PUSH2 0xA9C JUMP JUMPDEST PUSH1 0x40 MLOAD DUP1 SWAP2 SUB SWAP1 RETURN JUMPDEST PUSH2 0x21E PUSH1 0x4 DUP1 CALLDATASIZE SUB DUP2 ADD SWAP1 PUSH2 0x219 SWAP2 SWAP1 PUSH2 0xB0E JUMP JUMPDEST PUSH2 0x62F JUMP JUMPDEST PUSH1 0x40 MLOAD PUSH2 0x22C SWAP3 SWAP2 SWAP1 PUSH2 0x878 JUMP JUMPDEST PUSH1 0x40 MLOAD DUP1 SWAP2 SUB SWAP1 RETURN JUMPDEST PUSH2 0x24F PUSH1 0x4 DUP1 CALLDATASIZE SUB DUP2 ADD SWAP1 PUSH2 0x24A SWAP2 SWAP1 PUSH2 0xA71 JUMP JUMPDEST PUSH2 0x723 JUMP JUMPDEST PUSH1 0x40 MLOAD PUSH2 0x25C SWAP2 SWAP1 PUSH2 0xA9C JUMP JUMPDEST PUSH1 0x40 MLOAD DUP1 SWAP2 SUB SWAP1 RETURN JUMPDEST PUSH2 0x26D PUSH2 0x743 JUMP JUMPDEST PUSH1 0x40 MLOAD PUSH2 0x27B SWAP3 SWAP2 SWAP1 PUSH2 0x878 JUMP JUMPDEST PUSH1 0x40 MLOAD DUP1 SWAP2 SUB SWAP1 RETURN JUMPDEST PUSH2 0x29E PUSH1 0x4 DUP1 CALLDATASIZE SUB DUP2 ADD SWAP1 PUSH2 0x299 SWAP2 SWAP1 PUSH2 0xA71 JUMP JUMPDEST PUSH2 0x787 JUMP JUMPDEST PUSH1 0x40 MLOAD PUSH2 0x2AB SWAP2 SWAP1 PUSH2 0xA9C JUMP JUMPDEST PUSH1 0x40 MLOAD DUP1 SWAP2 SUB SWAP1 RETURN JUMPDEST PUSH0 DUP1 PUSH0 PUSH1 0x3 PUSH8 0xFFFFFFFFFFFFFFFF DUP2 GT ISZERO PUSH2 0x2D2 JUMPI PUSH2 0x2D1 PUSH2 0x8C4 JUMP JUMPDEST JUMPDEST PUSH1 0x40 MLOAD SWAP1 DUP1 DUP3 MSTORE DUP1 PUSH1 0x20 MUL PUSH1 0x20 ADD DUP3 ADD PUSH1 0x40 MSTORE DUP1 ISZERO PUSH2 0x300 JUMPI DUP2 PUSH1 0x20 ADD PUSH1 0x20 DUP3 MUL DUP1 CALLDATASIZE DUP4 CALLDATACOPY DUP1 DUP3 ADD SWAP2 POP POP SWAP1 POP JUMPDEST POP SWAP1 POP PUSH0 PUSH1 0x3 PUSH8 0xFFFFFFFFFFFFFFFF DUP2 GT ISZERO PUSH2 0x31F JUMPI PUSH2 0x31E PUSH2 0x8C4 JUMP JUMPDEST JUMPDEST PUSH1 0x40 MLOAD SWAP1 DUP1 DUP3 MSTORE DUP1 PUSH1 0x20 MUL PUSH1 0x20 ADD DUP3 ADD PUSH1 0x40 MSTORE DUP1 ISZERO PUSH2 0x34D JUMPI DUP2 PUSH1 0x20 ADD PUSH1 0x20 DUP3 MUL DUP1 CALLDATASIZE DUP4 CALLDATACOPY DUP1 DUP3 ADD SWAP2 POP POP SWAP1 POP JUMPDEST POP SWAP1 POP PUSH1 0x6 DUP2 PUSH0 DUP2 MLOAD DUP2 LT PUSH2 0x365 JUMPI PUSH2 0x364 PUSH2 0xB59 JUMP JUMPDEST JUMPDEST PUSH1 0x20 MUL PUSH1 0x20 ADD ADD DUP2 DUP2 MSTORE POP POP DUP1 SWAP2 POP PUSH1 0x1 DUP3 PUSH0 DUP2 MLOAD DUP2 LT PUSH2 0x389 JUMPI PUSH2 0x388 PUSH2 0xB59 JUMP JUMPDEST JUMPDEST PUSH1 0x20 MUL PUSH1 0x20 ADD ADD DUP2 DUP2 MSTORE POP POP DUP2 PUSH0 DUP2 MLOAD DUP2 LT PUSH2 0x3A8 JUMPI PUSH2 0x3A7 PUSH2 0xB59 JUMP JUMPDEST JUMPDEST PUSH1 0x20 MUL PUSH1 0x20 ADD ADD MLOAD DUP2 PUSH0 DUP2 MLOAD DUP2 LT PUSH2 0x3C3 JUMPI PUSH2 0x3C2 PUSH2 0xB59 JUMP JUMPDEST JUMPDEST PUSH1 0x20 MUL PUSH1 0x20 ADD ADD MLOAD SWAP4 POP SWAP4 POP POP POP SWAP1 SWAP2 JUMP JUMPDEST PUSH0 DUP1 PUSH0 PUSH1 0x3 PUSH8 0xFFFFFFFFFFFFFFFF DUP2 GT ISZERO PUSH2 0x3F3 JUMPI PUSH2 0x3F2 PUSH2 0x8C4 JUMP JUMPDEST JUMPDEST PUSH1 0x40 MLOAD SWAP1 DUP1 DUP3 MSTORE DUP1 PUSH1 0x20 MUL PUSH1 0x20 ADD DUP3 ADD PUSH1 0x40 MSTORE DUP1 ISZERO PUSH2 0x421 JUMPI DUP2 PUSH1 0x20 ADD PUSH1 0x20 DUP3 MUL DUP1 CALLDATASIZE DUP4 CALLDATACOPY DUP1 DUP3 ADD SWAP2 POP POP SWAP1 POP JUMPDEST POP SWAP1 POP DUP1 SWAP4 POP PUSH1 0x6 DUP2 PUSH0 DUP2 MLOAD DUP2 LT PUSH2 0x43C JUMPI PUSH2 0x43B PUSH2 0xB59 JUMP JUMPDEST JUMPDEST PUSH1 0x20 MUL PUSH1 0x20 ADD ADD DUP2 DUP2 MSTORE POP POP DUP4 PUSH0 DUP2 MLOAD DUP2 LT PUSH2 0x45B JUMPI PUSH2 0x45A PUSH2 0xB59 JUMP JUMPDEST JUMPDEST PUSH1 0x20 MUL PUSH1 0x20 ADD ADD MLOAD DUP2 PUSH0 DUP2 MLOAD DUP2 LT PUSH2 0x476 JUMPI PUSH2 0x475 PUSH2 0xB59 JUMP JUMPDEST JUMPDEST PUSH1 0x20 MUL PUSH1 0x20 ADD ADD MLOAD SWAP3 POP SWAP3 POP POP SWAP2 POP SWAP2 JUMP JUMPDEST PUSH1 0x4 DUP2 DUP2 SLOAD DUP2 LT PUSH2 0x497 JUMPI PUSH0 DUP1 REVERT JUMPDEST SWAP1 PUSH0 MSTORE PUSH1 0x20 PUSH0 KECCAK256 ADD PUSH0 SWAP2 POP SWAP1 POP SLOAD DUP2 JUMP JUMPDEST PUSH0 DUP1 PUSH1 0x3 PUSH1 0x2 SWAP1 DUP1 SLOAD PUSH2 0x4BC SWAP3 SWAP2 SWAP1 PUSH2 0x7A7 JUMP JUMPDEST POP PUSH1 0x6 PUSH1 0x3 PUSH0 DUP2 SLOAD DUP2 LT PUSH2 0x4D3 JUMPI PUSH2 0x4D2 PUSH2 0xB59 JUMP JUMPDEST JUMPDEST SWAP1 PUSH0 MSTORE PUSH1 0x20 PUSH0 KECCAK256 ADD DUP2 SWAP1 SSTORE POP PUSH1 0x2 PUSH0 DUP2 SLOAD DUP2 LT PUSH2 0x4F3 JUMPI PUSH2 0x4F2 PUSH2 0xB59 JUMP JUMPDEST JUMPDEST SWAP1 PUSH0 MSTORE PUSH1 0x20 PUSH0 KECCAK256 ADD SLOAD PUSH1 0x3 PUSH0 DUP2 SLOAD DUP2 LT PUSH2 0x510 JUMPI PUSH2 0x50F PUSH2 0xB59 JUMP JUMPDEST JUMPDEST SWAP1 PUSH0 MSTORE PUSH1 0x20 PUSH0 KECCAK256 ADD SLOAD SWAP2 POP SWAP2 POP SWAP1 SWAP2 JUMP JUMPDEST PUSH1 0x1 DUP2 DUP2 SLOAD DUP2 LT PUSH2 0x530 JUMPI PUSH0 DUP1 REVERT JUMPDEST SWAP1 PUSH0 MSTORE PUSH1 0x20 PUSH0 KECCAK256 ADD PUSH0 SWAP2 POP SWAP1 POP SLOAD DUP2 JUMP JUMPDEST PUSH0 DUP1 PUSH1 0x40 MLOAD DUP1 PUSH1 0x60 ADD PUSH1 0x40 MSTORE DUP1 PUSH1 0x1 PUSH1 0xFF AND DUP2 MSTORE PUSH1 0x20 ADD PUSH1 0x2 PUSH1 0xFF AND DUP2 MSTORE PUSH1 0x20 ADD PUSH1 0x3 PUSH1 0xFF AND DUP2 MSTORE POP PUSH1 0x1 SWAP1 PUSH1 0x3 PUSH2 0x57A SWAP3 SWAP2 SWAP1 PUSH2 0x7F5 JUMP JUMPDEST POP PUSH1 0x1 PUSH0 SWAP1 DUP1 SLOAD PUSH2 0x58C SWAP3 SWAP2 SWAP1 PUSH2 0x7A7 JUMP JUMPDEST POP PUSH1 0x6 PUSH1 0x1 PUSH0 DUP2 SLOAD DUP2 LT PUSH2 0x5A3 JUMPI PUSH2 0x5A2 PUSH2 0xB59 JUMP JUMPDEST JUMPDEST SWAP1 PUSH0 MSTORE PUSH1 0x20 PUSH0 KECCAK256 ADD DUP2 SWAP1 SSTORE POP PUSH0 DUP1 DUP2 SLOAD DUP2 LT PUSH2 0x5C2 JUMPI PUSH2 0x5C1 PUSH2 0xB59 JUMP JUMPDEST JUMPDEST SWAP1 PUSH0 MSTORE PUSH1 0x20 PUSH0 KECCAK256 ADD SLOAD PUSH1 0x1 PUSH0 DUP2 SLOAD DUP2 LT PUSH2 0x5DF JUMPI PUSH2 0x5DE PUSH2 0xB59 JUMP JUMPDEST JUMPDEST SWAP1 PUSH0 MSTORE PUSH1 0x20 PUSH0 KECCAK256 ADD SLOAD SWAP2 POP SWAP2 POP SWAP1 SWAP2 JUMP JUMPDEST PUSH0 DUP2 DUP2 SLOAD DUP2 LT PUSH2 0x5FE JUMPI PUSH0 DUP1 REVERT JUMPDEST SWAP1 PUSH0 MSTORE PUSH1 0x20 PUSH0 KECCAK256 ADD PUSH0 SWAP2 POP SWAP1 POP SLOAD DUP2 JUMP JUMPDEST PUSH1 0x2 DUP2 DUP2 SLOAD DUP2 LT PUSH2 0x61E JUMPI PUSH0 DUP1 REVERT JUMPDEST SWAP1 PUSH0 MSTORE PUSH1 0x20 PUSH0 KECCAK256 ADD PUSH0 SWAP2 POP SWAP1 POP SLOAD DUP2 JUMP JUMPDEST PUSH0 DUP1 PUSH0 PUSH1 0x3 PUSH8 0xFFFFFFFFFFFFFFFF DUP2 GT ISZERO PUSH2 0x64D JUMPI PUSH2 0x64C PUSH2 0x8C4 JUMP JUMPDEST JUMPDEST PUSH1 0x40 MLOAD SWAP1 DUP1 DUP3 MSTORE DUP1 PUSH1 0x20 MUL PUSH1 0x20 ADD DUP3 ADD PUSH1 0x40 MSTORE DUP1 ISZERO PUSH2 0x67B JUMPI DUP2 PUSH1 0x20 ADD PUSH1 0x20 DUP3 MUL DUP1 CALLDATASIZE DUP4 CALLDATACOPY DUP1 DUP3 ADD SWAP2 POP POP SWAP1 POP JUMPDEST POP SWAP1 POP DUP5 DUP5 DUP1 DUP1 PUSH1 0x20 MUL PUSH1 0x20 ADD PUSH1 0x40 MLOAD SWAP1 DUP2 ADD PUSH1 0x40 MSTORE DUP1 SWAP4 SWAP3 SWAP2 SWAP1 DUP2 DUP2 MSTORE PUSH1 0x20 ADD DUP4 DUP4 PUSH1 0x20 MUL DUP1 DUP3 DUP5 CALLDATACOPY PUSH0 DUP2 DUP5 ADD MSTORE PUSH1 0x1F NOT PUSH1 0x1F DUP3 ADD AND SWAP1 POP DUP1 DUP4 ADD SWAP3 POP POP POP POP POP POP POP SWAP1 POP PUSH1 0x6 DUP2 PUSH0 DUP2 MLOAD DUP2 LT PUSH2 0x6D6 JUMPI PUSH2 0x6D5 PUSH2 0xB59 JUMP JUMPDEST JUMPDEST PUSH1 0x20 MUL PUSH1 0x20 ADD ADD DUP2 DUP2 MSTORE POP POP DUP5 DUP5 PUSH0 DUP2 DUP2 LT PUSH2 0x6F5 JUMPI PUSH2 0x6F4 PUSH2 0xB59 JUMP JUMPDEST JUMPDEST SWAP1 POP PUSH1 0x20 MUL ADD CALLDATALOAD DUP2 PUSH0 DUP2 MLOAD DUP2 LT PUSH2 0x70F JUMPI PUSH2 0x70E PUSH2 0xB59 JUMP JUMPDEST JUMPDEST PUSH1 0x20 MUL PUSH1 0x20 ADD ADD MLOAD SWAP3 POP SWAP3 POP POP SWAP3 POP SWAP3 SWAP1 POP JUMP JUMPDEST PUSH1 0x3 DUP2 DUP2 SLOAD DUP2 LT PUSH2 0x732 JUMPI PUSH0 DUP1 REVERT JUMPDEST SWAP1 PUSH0 MSTORE PUSH1 0x20 PUSH0 KECCAK256 ADD PUSH0 SWAP2 POP SWAP1 POP SLOAD DUP2 JUMP JUMPDEST PUSH0 DUP1 PUSH1 0x4 PUSH0 DUP2 SLOAD DUP2 LT PUSH2 0x759 JUMPI PUSH2 0x758 PUSH2 0xB59 JUMP JUMPDEST JUMPDEST SWAP1 PUSH0 MSTORE PUSH1 0x20 PUSH0 KECCAK256 ADD SLOAD PUSH1 0x5 PUSH0 DUP2 SLOAD DUP2 LT PUSH2 0x776 JUMPI PUSH2 0x775 PUSH2 0xB59 JUMP JUMPDEST JUMPDEST SWAP1 PUSH0 MSTORE PUSH1 0x20 PUSH0 KECCAK256 ADD SLOAD SWAP2 POP SWAP2 POP SWAP1 SWAP2 JUMP JUMPDEST PUSH1 0x5 DUP2 DUP2 SLOAD DUP2 LT PUSH2 0x796 JUMPI PUSH0 DUP1 REVERT JUMPDEST SWAP1 PUSH0 MSTORE PUSH1 0x20 PUSH0 KECCAK256 ADD PUSH0 SWAP2 POP SWAP1 POP SLOAD DUP2 JUMP JUMPDEST DUP3 DUP1 SLOAD DUP3 DUP3 SSTORE SWAP1 PUSH0 MSTORE PUSH1 0x20 PUSH0 KECCAK256 SWAP1 DUP2 ADD SWAP3 DUP3 ISZERO PUSH2 0x7E4 JUMPI PUSH0 MSTORE PUSH1 0x20 PUSH0 KECCAK256 SWAP2 DUP3 ADD JUMPDEST DUP3 DUP2 GT ISZERO PUSH2 0x7E3 JUMPI DUP3 SLOAD DUP3 SSTORE SWAP2 PUSH1 0x1 ADD SWAP2 SWAP1 PUSH1 0x1 ADD SWAP1 PUSH2 0x7C8 JUMP JUMPDEST JUMPDEST POP SWAP1 POP PUSH2 0x7F1 SWAP2 SWAP1 PUSH2 0x845 JUMP JUMPDEST POP SWAP1 JUMP JUMPDEST DUP3 DUP1 SLOAD DUP3 DUP3 SSTORE SWAP1 PUSH0 MSTORE PUSH1 0x20 PUSH0 KECCAK256 SWAP1 DUP2 ADD SWAP3 DUP3 ISZERO PUSH2 0x834 JUMPI SWAP2 PUSH1 0x20 MUL DUP3 ADD JUMPDEST DUP3 DUP2 GT ISZERO PUSH2 0x833 JUMPI DUP3 MLOAD DUP3 SWAP1 PUSH1 0xFF AND SWAP1 SSTORE SWAP2 PUSH1 0x20 ADD SWAP2 SWAP1 PUSH1 0x1 ADD SWAP1 PUSH2 0x813 JUMP JUMPDEST JUMPDEST POP SWAP1 POP PUSH2 0x841 SWAP2 SWAP1 PUSH2 0x845 JUMP JUMPDEST POP SWAP1 JUMP JUMPDEST JUMPDEST DUP1 DUP3 GT ISZERO PUSH2 0x85C JUMPI PUSH0 DUP2 PUSH0 SWAP1 SSTORE POP PUSH1 0x1 ADD PUSH2 0x846 JUMP JUMPDEST POP SWAP1 JUMP JUMPDEST PUSH0 DUP2 SWAP1 POP SWAP2 SWAP1 POP JUMP JUMPDEST PUSH2 0x872 DUP2 PUSH2 0x860 JUMP JUMPDEST DUP3 MSTORE POP POP JUMP JUMPDEST PUSH0 PUSH1 0x40 DUP3 ADD SWAP1 POP PUSH2 0x88B PUSH0 DUP4 ADD DUP6 PUSH2 0x869 JUMP JUMPDEST PUSH2 0x898 PUSH1 0x20 DUP4 ADD DUP5 PUSH2 0x869 JUMP JUMPDEST SWAP4 SWAP3 POP POP POP JUMP JUMPDEST PUSH0 PUSH1 0x40 MLOAD SWAP1 POP SWAP1 JUMP JUMPDEST PUSH0 DUP1 REVERT JUMPDEST PUSH0 DUP1 REVERT JUMPDEST PUSH0 DUP1 REVERT JUMPDEST PUSH0 PUSH1 0x1F NOT PUSH1 0x1F DUP4 ADD AND SWAP1 POP SWAP2 SWAP1 POP JUMP JUMPDEST PUSH32 0x4E487B7100000000000000000000000000000000000000000000000000000000 PUSH0 MSTORE PUSH1 0x41 PUSH1 0x4 MSTORE PUSH1 0x24 PUSH0 REVERT JUMPDEST PUSH2 0x8FA DUP3 PUSH2 0x8B4 JUMP JUMPDEST DUP2 ADD DUP2 DUP2 LT PUSH8 0xFFFFFFFFFFFFFFFF DUP3 GT OR ISZERO PUSH2 0x919 JUMPI PUSH2 0x918 PUSH2 0x8C4 JUMP JUMPDEST JUMPDEST DUP1 PUSH1 0x40 MSTORE POP POP POP JUMP JUMPDEST PUSH0 PUSH2 0x92B PUSH2 0x89F JUMP JUMPDEST SWAP1 POP PUSH2 0x937 DUP3 DUP3 PUSH2 0x8F1 JUMP JUMPDEST SWAP2 SWAP1 POP JUMP JUMPDEST PUSH0 PUSH8 0xFFFFFFFFFFFFFFFF DUP3 GT ISZERO PUSH2 0x956 JUMPI PUSH2 0x955 PUSH2 0x8C4 JUMP JUMPDEST JUMPDEST PUSH1 0x20 DUP3 MUL SWAP1 POP PUSH1 0x20 DUP2 ADD SWAP1 POP SWAP2 SWAP1 POP JUMP JUMPDEST PUSH0 DUP1 REVERT JUMPDEST PUSH2 0x974 DUP2 PUSH2 0x860 JUMP JUMPDEST DUP2 EQ PUSH2 0x97E JUMPI PUSH0 DUP1 REVERT JUMPDEST POP JUMP JUMPDEST PUSH0 DUP2 CALLDATALOAD SWAP1 POP PUSH2 0x98F DUP2 PUSH2 0x96B JUMP JUMPDEST SWAP3 SWAP2 POP POP JUMP JUMPDEST PUSH0 PUSH2 0x9A7 PUSH2 0x9A2 DUP5 PUSH2 0x93C JUMP JUMPDEST PUSH2 0x922 JUMP JUMPDEST SWAP1 POP DUP1 DUP4 DUP3 MSTORE PUSH1 0x20 DUP3 ADD SWAP1 POP PUSH1 0x20 DUP5 MUL DUP4 ADD DUP6 DUP2 GT ISZERO PUSH2 0x9CA JUMPI PUSH2 0x9C9 PUSH2 0x967 JUMP JUMPDEST JUMPDEST DUP4 JUMPDEST DUP2 DUP2 LT ISZERO PUSH2 0x9F3 JUMPI DUP1 PUSH2 0x9DF DUP9 DUP3 PUSH2 0x981 JUMP JUMPDEST DUP5 MSTORE PUSH1 0x20 DUP5 ADD SWAP4 POP POP PUSH1 0x20 DUP2 ADD SWAP1 POP PUSH2 0x9CC JUMP JUMPDEST POP POP POP SWAP4 SWAP3 POP POP POP JUMP JUMPDEST PUSH0 DUP3 PUSH1 0x1F DUP4 ADD SLT PUSH2 0xA11 JUMPI PUSH2 0xA10 PUSH2 0x8B0 JUMP JUMPDEST JUMPDEST DUP2 CALLDATALOAD PUSH2 0xA21 DUP5 DUP3 PUSH1 0x20 DUP7 ADD PUSH2 0x995 JUMP JUMPDEST SWAP2 POP POP SWAP3 SWAP2 POP POP JUMP JUMPDEST PUSH0 PUSH1 0x20 DUP3 DUP5 SUB SLT ISZERO PUSH2 0xA3F JUMPI PUSH2 0xA3E PUSH2 0x8A8 JUMP JUMPDEST JUMPDEST PUSH0 DUP3 ADD CALLDATALOAD PUSH8 0xFFFFFFFFFFFFFFFF DUP2 GT ISZERO PUSH2 0xA5C JUMPI PUSH2 0xA5B PUSH2 0x8AC JUMP JUMPDEST JUMPDEST PUSH2 0xA68 DUP5 DUP3 DUP6 ADD PUSH2 0x9FD JUMP JUMPDEST SWAP2 POP POP SWAP3 SWAP2 POP POP JUMP JUMPDEST PUSH0 PUSH1 0x20 DUP3 DUP5 SUB SLT ISZERO PUSH2 0xA86 JUMPI PUSH2 0xA85 PUSH2 0x8A8 JUMP JUMPDEST JUMPDEST PUSH0 PUSH2 0xA93 DUP5 DUP3 DUP6 ADD PUSH2 0x981 JUMP JUMPDEST SWAP2 POP POP SWAP3 SWAP2 POP POP JUMP JUMPDEST PUSH0 PUSH1 0x20 DUP3 ADD SWAP1 POP PUSH2 0xAAF PUSH0 DUP4 ADD DUP5 PUSH2 0x869 JUMP JUMPDEST SWAP3 SWAP2 POP POP JUMP JUMPDEST PUSH0 DUP1 REVERT JUMPDEST PUSH0 DUP1 DUP4 PUSH1 0x1F DUP5 ADD SLT PUSH2 0xACE JUMPI PUSH2 0xACD PUSH2 0x8B0 JUMP JUMPDEST JUMPDEST DUP3 CALLDATALOAD SWAP1 POP PUSH8 0xFFFFFFFFFFFFFFFF DUP2 GT ISZERO PUSH2 0xAEB JUMPI PUSH2 0xAEA PUSH2 0xAB5 JUMP JUMPDEST JUMPDEST PUSH1 0x20 DUP4 ADD SWAP2 POP DUP4 PUSH1 0x20 DUP3 MUL DUP4 ADD GT ISZERO PUSH2 0xB07 JUMPI PUSH2 0xB06 PUSH2 0x967 JUMP JUMPDEST JUMPDEST SWAP3 POP SWAP3 SWAP1 POP JUMP JUMPDEST PUSH0 DUP1 PUSH1 0x20 DUP4 DUP6 SUB SLT ISZERO PUSH2 0xB24 JUMPI PUSH2 0xB23 PUSH2 0x8A8 JUMP JUMPDEST JUMPDEST PUSH0 DUP4 ADD CALLDATALOAD PUSH8 0xFFFFFFFFFFFFFFFF DUP2 GT ISZERO PUSH2 0xB41 JUMPI PUSH2 0xB40 PUSH2 0x8AC JUMP JUMPDEST JUMPDEST PUSH2 0xB4D DUP6 DUP3 DUP7 ADD PUSH2 0xAB9 JUMP JUMPDEST SWAP3 POP SWAP3 POP POP SWAP3 POP SWAP3 SWAP1 POP JUMP JUMPDEST PUSH32 0x4E487B7100000000000000000000000000000000000000000000000000000000 PUSH0 MSTORE PUSH1 0x32 PUSH1 0x4 MSTORE PUSH1 0x24 PUSH0 REVERT INVALID LOG2 PUSH5 0x6970667358 0x22 SLT KECCAK256 BASEFEE SWAP9 JUMPI 0xE8 INVALID 0x27 KECCAK256 0xD5 LOG4 LOG1 BLOCKHASH 0xE8 INVALID 0xD3 DUP3 DELEGATECALL PUSH12 0xA3E384A9977AEBD86D6007A1 LOG4 SWAP5 COINBASE PUSH5 0x736F6C6343 STOP ADDMOD BYTE STOP CALLER "
				},
				"gasEstimates": {
					"creation": {
						"codeDepositCost": "600800",
						"executionCost": "infinite",
						"totalCost": "infinite"
					},
					"external": {
						"arr(uint256)": "infinite",
						"arr1(uint256)": "infinite",
						"arr11(uint256)": "infinite",
						"arr12(uint256)": "infinite",
						"arr3(uint256)": "infinite",
						"arr4(uint256)": "infinite",
						"test1()": "infinite",
						"test2()": "infinite",
						"test3()": "infinite",
						"test4(uint256[])": "infinite",
						"test5(uint256[])": "infinite",
						"testCon()": "infinite"
					}
				},
				"methodIdentifiers": {
					"arr(uint256)": "71e5ee5f",
					"arr1(uint256)": "6987b1fb",
					"arr11(uint256)": "457f0570",
					"arr12(uint256)": "d3b087ba",
					"arr3(uint256)": "8732ded8",
					"arr4(uint256)": "b61f14a5",
					"test1()": "6b59084d",
					"test2()": "66e41cb7",
					"test3()": "0a8e8e01",
					"test4(uint256[])": "26b0ba1d",
					"test5(uint256[])": "92a789f9",
					"testCon()": "d087d67a"
				}
			},
			"storageLayout": {
				"storage": [
					{
						"astId": 9,
						"contract": "solidityDemo1/test_zhioryinyong.sol:zhioryinyong",
						"label": "arr",
						"offset": 0,
						"slot": "0",
						"type": "t_array(t_uint256)dyn_storage"
					},
					{
						"astId": 17,
						"contract": "solidityDemo1/test_zhioryinyong.sol:zhioryinyong",
						"label": "arr1",
						"offset": 0,
						"slot": "1",
						"type": "t_array(t_uint256)dyn_storage"
					},
					{
						"astId": 20,
						"contract": "solidityDemo1/test_zhioryinyong.sol:zhioryinyong",
						"label": "arr3",
						"offset": 0,
						"slot": "2",
						"type": "t_array(t_uint256)dyn_storage"
					},
					{
						"astId": 27,
						"contract": "solidityDemo1/test_zhioryinyong.sol:zhioryinyong",
						"label": "arr4",
						"offset": 0,
						"slot": "3",
						"type": "t_array(t_uint256)dyn_storage"
					},
					{
						"astId": 30,
						"contract": "solidityDemo1/test_zhioryinyong.sol:zhioryinyong",
						"label": "arr11",
						"offset": 0,
						"slot": "4",
						"type": "t_array(t_uint256)dyn_storage"
					},
					{
						"astId": 33,
						"contract": "solidityDemo1/test_zhioryinyong.sol:zhioryinyong",
						"label": "arr12",
						"offset": 0,
						"slot": "5",
						"type": "t_array(t_uint256)dyn_storage"
					}
				],
				"types": {
					"t_array(t_uint256)dyn_storage": {
						"base": "t_uint256",
						"encoding": "dynamic_array",
						"label": "uint256[]",
						"numberOfBytes": "32"
					},
					"t_uint256": {
						"encoding": "inplace",
						"label": "uint256",
						"numberOfBytes": "32"
					}
				}
			},
			"userdoc": {
				"kind": "user",
				"methods": {},
				"version": 1
			}
		}
	}
}